:020000040800F2
:1000000008200020650B0008CD0B0008CD0B000870
:10001000CD0B0008CD0B0008CD0B00080000000040
:10002000000000000000000000000000853A000809
:10003000CD0B0008000000003D3C00089D3C00087E
:10004000CD0B0008CD0B0008CD0B0008CD0B000830
:10005000CD0B0008CD0B0008CD0B0008CD0B000820
:10006000CD0B0008CD0B0008CD0B0008CD0B000810
:10007000CD0B0008CD0B0008CD0B0008CD0B000800
:10008000CD0B0008CD0B0008CD0B0008CD0B0008F0
:10009000CD0B0008CD0B0008CD0B0008CD0B0008E0
:1000A000CD0B0008CD0B0008CD0B0008CD0B0008D0
:1000B000CD0B0008CD0B0008CD0B0008CD0B0008C0
:1000C000CD0B0008CD0B0008CD0B0008CD0B0008B0
:1000D000CD0B0008B51F0008E11F00080D20000827
:1000E000CD0B0008CD0B0008CD0B0008CD0B000890
:1000F000CD0B0008CD0B0008CD0B0008CD0B000880
:10010000CD0B0008CD0B0008CD0B0008CD0B00086F
:100110003920000865200008CD0B0008CD0B000831
:10012000CD0B0008CD0B0008CD0B0008CD0B00084F
:10013000CD0B0008CD0B0008CD0B0008CD0B00083F
:10014000CD0B0008CD0B0008CD0B0008CD0B00082F
:10015000CD0B0008CD0B0008CD0B00089120000846
:10016000CD0B0008CD0B0008CD0B0008CD0B00080F
:10017000CD0B0008CD0B0008CD0B0008CD0B0008FF
:10018000CD0B0008CD0B000880B584B000AFF8603F
:10019000B96011461A460B46FB711346BB71FB68EA
:1001A000B86819469FED120B04F0AAFA0346002B1B
:1001B00001D0012315E0FA79BB79B86811461A46D7
:1001C00004F026FB0346002B01D0012309E0FB6865
:1001D000BA681A61FB68FA791A75FB68BA795A75B8
:1001E000002318461037BD4680BD00BFAFF3008026
:1001F000000000000080404080B582B000AF786011
:1002000087ED000AD7ED007AF5EEC07AF1EE10FA2C
:1002100008D4D7ED007A9FED157AF4EEC77AF1EEA7
:1002200010FA01DD01231CE07B6819697A687B689C
:100230001B7DD7ED007A9FED0E7A67EE877A9FEDF2
:100240000B7AC7EE877A9FED0B7A77EE877AFCEE12
:10025000E77A084611461A4617EE903A04F030FC49
:10026000002318460837BD4680BD00BF0000344358
:100270000000E14400001B4480B58AB000AF786004
:10028000396000237B6200233B620023FB61002373
:10029000BB617B681B8A9BB27B627B6A23F4405301
:1002A0007B623B68DB881A467B6A13437B627B6A0E
:1002B0009AB27B681A827B689B899BB27B627B6A5D
:1002C00023F4B05323F00C037B623B689A883B68AD
:1002D0001B8913439AB23B685B8913439BB21A464E
:1002E0007B6A13437B627B6A9AB27B689A817B68E4
:1002F0009B8A9BB27B627B6A23F440737B623B6880
:100300009B891A467B6A13437B627B6A9AB27B683D
:100310009A8207F10803184601F0FEF87B68314A1B
:10032000934203D07B68304A934202D17B693B629F
:1003300001E03B693B627B689B899BB29BB21BB22D
:10034000002B0CDA3A6A13469B0013449A001A44B5
:100350003B681B685B00B2FBF3F3FB610BE03A6A9E
:1003600013469B0013449A001A443B681B689B0089
:10037000B2FBF3F3FB61FB691C4AA2FB03235B099D
:100380001B017B627B6A1B09642202FB03F3FA698F
:10039000D31ABB617B689B899BB29BB21BB2002BBB
:1003A0000CDABB69DB003233104AA2FB03235B0982
:1003B00003F007037A6A13437B620BE0BB691B01FE
:1003C00032330A4AA2FB03235B0903F00F037A6A64
:1003D00013437B627B6A9AB27B681A812837BD46D9
:1003E00080BD00BF00100140001401401F85EB518B
:1003F00080B483B000AF78600B46FB70FB78002BB5
:1004000008D07B689B899BB243F400539AB27B6807
:100410009A8107E07B689B899BB223F400539AB2D0
:100420007B689A810C37BD465DF8047B704700BF3E
:1004300080B483B000AF78600B467B807B88C3F3C9
:1004400008039AB27B689A800C37BD465DF8047B3E
:10045000704700BF80B487B000AF78600B467B80E8
:1004600013467B7000233B610023FB600023BB60CD
:1004700000237B617B687B617B88DBB25B09DBB23D
:100480003B617B8803F01F03FB60FB68012202FADB
:1004900003F3BB603B69012B03D17B690C337B61A8
:1004A00009E03B69022B03D17B6910337B6102E0D9
:1004B0007B6914337B617B78002B06D07B697A697A
:1004C0001168BA680A431A6006E07B697A691168A4
:1004D000BA68D2430A401A601C37BD465DF8047BF7
:1004E000704700BF80B485B000AF78600B467B805A
:1004F0000023FB737B681B889AB27B8813409BB2F6
:10050000002B02D00123FB7301E00023FB73FB7B74
:1005100018461437BD465DF8047B704780B487B039
:1005200000AF78600B467B800023FB6000237B617B
:100530000023BB600023FB747B88DBB25B09DBB26A
:10054000BB607B8803F01F037B617B69012202FA99
:1005500003F37B61BB68012B07D17B689B899BB24E
:100560001A467B6913407B6111E0BB68022B07D1FF
:100570007B681B8A9BB21A467B6913407B6106E04D
:100580007B689B8A9BB21A467B6913407B617B88A0
:100590001B0A9BB2FB60FB68012202FA03F3FB60BB
:1005A0007B681B889BB21A46FB681340FB607B6923
:1005B000002B05D0FB68002B02D00123FB7401E067
:1005C0000023FB74FB7C18461C37BD465DF8047B9A
:1005D000704700BF80B582B000AF78600B46FB70FB
:1005E000FB78002B03D1786800F0E6F867E0FB7831
:1005F000012B03D1786800F0EDF860E0FB78022B66
:1006000003D1786800F0F4F859E0FB78032B03D1AC
:10061000786800F0FBF852E0FB78042B03D178688F
:1006200000F002F94BE0FB78052B03D1786800F06D
:1006300023F944E0FB78062B03D1786800F044F9F5
:100640003DE0FB78072B03D1786800F067F936E0CE
:10065000FB78082B03D1786800F08AF92FE0FB784B
:10066000092B03D1786800F0ADF928E0FB780A2B5C
:1006700003D1786800F0CEF921E0FB780B2B03D191
:10068000786800F0D5F91AE0FB780C2B03D1786874
:1006900000F0DCF913E0FB780D2B03D1786800F053
:1006A000E3F90CE0FB780E2B03D1786800F0EAF94F
:1006B00005E0FB780F2B02D1786800F00BFA786820
:1006C00000F004F80837BD4680BD00BF80B58CB08F
:1006D00000AF786000237B770023BB6200237B623E
:1006E00000233B62012387F82C3000233B777B6893
:1006F0001E4A934207D14FF48070012100F0F2FFAF
:100700000023BB6116E07B68194A934207D14FF47E
:100710000070012100F0E6FF0023BB610AE07B6866
:10072000144A934206D14FF48060012100F0DAFFB1
:100730000023BB6100233B610023BB604FF4803387
:10074000FB604FF440737B6107F10803184601F02A
:10075000DBFD07F118037868194601F081FD786820
:10076000012101F0F9FD3037BD4680BD0020014078
:10077000002101400022014080B582B000AF7860C6
:100780000B46FB70FB78786819460122012301F0C3
:10079000FFFD786801F0C6FE00BF7868022101F015
:1007A000DFFE0346002BF8D0786801F0CBFE03464D
:1007B00018460837BD4680BD80B582B000AF78606E
:1007C00001200349012200F0ADF90837BD4680BD84
:1007D0000000024080B582B000AF7860012003497C
:1007E000022200F09FF90837BD4680BD000002409C
:1007F00080B582B000AF786001200349042200F088
:1008000091F90837BD4680BD0000024080B582B036
:1008100000AF786001200349082200F083F908370F
:10082000BD4680BD0000024080B582B000AF786058
:100830007B680C4A934203D07B680B4A934205D1F4
:1008400001200A49102200F06DF908E07B68084A8F
:10085000934204D120200749402200F063F9083771
:10086000BD4680BD00200140002101400000024043
:10087000002201400014024080B582B000AF7860D1
:100880007B680C4A934203D07B680B4A934205D1A4
:1008900001200A49202200F045F908E07B68084A57
:1008A000934204D120200749802200F03BF9083709
:1008B000BD4680BD002001400021014000000240F3
:1008C000002201400014024080B582B000AF786081
:1008D0007B680D4A934203D07B680C4A934205D152
:1008E00001200B49402200F01DF909E07B68094A0C
:1008F000934205D1202008494FF4807200F012F98C
:100900000837BD4680BD00BF0020014000210140E6
:1009100000000240002201400014024080B582B075
:1009200000AF78607B680D4A934203D07B680C4A25
:10093000934205D101200B49802200F0F3F809E031
:100940007B68094A934205D1202008494FF4007280
:1009500000F0E8F80837BD4680BD00BF0020014028
:10096000002101400000024000220140001402402A
:1009700080B582B000AF78607B680D4A934203D0A7
:100980007B680C4A934205D102200B49012200F0FA
:10099000C9F809E07B68094A934205D1202008493B
:1009A0004FF4806200F0BEF80837BD4680BD00BF3E
:1009B00000200140002101400004024000220140CB
:1009C0000014024080B582B000AF78607B680C4AAA
:1009D000934203D07B680B4A934205D102200A4917
:1009E000022200F09FF808E07B68084A934204D195
:1009F00020200749082200F095F80837BD4680BD41
:100A0000002001400021014000040240002201407A
:100A10000014024080B582B000AF78600420034922
:100A2000012200F07FF80837BD4680BD0008024073
:100A300080B582B000AF786004200349022200F044
:100A400071F80837BD4680BD0008024080B582B00D
:100A500000AF786004200349042200F063F80837EF
:100A6000BD4680BD0008024080B582B000AF78600E
:100A700004200349082200F055F80837BD4680BD20
:100A80000008024080B582B000AF78607B680C4AF5
:100A9000934203D07B680B4A934205D104200A4954
:100AA000082200F03FF808E07B68084A934204D12E
:100AB00020200749102200F035F80837BD4680BDD8
:100AC00000200140002101400008024000220140B6
:100AD0000014024080B582B000AF78607B680C4A99
:100AE000934203D07B680B4A934205D104200A4904
:100AF000202200F017F808E07B68084A934204D1EE
:100B000020200749202200F00DF80837BD4680BD9F
:100B10000020014000210140000802400022014065
:100B20000014024080B584B000AF03463960FB80FA
:100B30001346BB80FB881846012100F097FDBB8857
:100B4000BB6003233B730023BB730023FB730323AE
:100B50007B7307F108033868194602F0D7FC103799
:100B6000BD4680BD80B582B000AF124B7B60124B9A
:100B70003B6007E03B681A1D3A607A68111D796096
:100B800012681A603B680D4A9342F3D30C480D4932
:100B90004FF000028842B8BF40F8042BFADBDFF8C0
:100BA0002800016841F47001016000F0DDFA0837A7
:100BB000BD4680BD107A00080000002048000020DB
:100BC000480000200418002088ED00E080B400AF49
:100BD000FEE700BF80B584B000AF0346FB71FB7930
:100BE000104A52F823301846012100F03FFDFB79EE
:100BF0000D4A32F81330BB6001233B730023BB73F3
:100C00000123FB7302237B73FB79084A52F82320EC
:100C100007F108031046194602F078FC1037BD466C
:100C200080BD00BF28780008207800080000002060
:100C300080B483B000AF0346FB71FB79064A52F8DB
:100C40002330FA79054931F812201A830C37BD4652
:100C50005DF8047B704700BF00000020207800088A
:100C600080B483B000AF0346FB71FB79064A52F8AB
:100C70002330FA79054931F812205A830C37BD46E2
:100C80005DF8047B704700BF00000020207800085A
:100C900080B483B000AF0346FB71FB79094A52F878
:100CA0002330FA79074951F822205269F979064828
:100CB00030F811104A405A610C37BD465DF8047B8C
:100CC000704700BF000000202078000880B582B087
:100CD00000AF0346FB71FB79042B66D801A252F8E2
:100CE00023F000BFF90C0008230D0008770D000861
:100CF0004D0D0008A10D00083048402102F0AEFC67
:100D00002F48802102F0AAFC2C48802102F0B4FC7C
:100D10002A48082102F0B0FC2948402102F09EFC3C
:100D200048E02648802102F099FC2548802102F005
:100D3000A3FC2248402102F09FFC2048082102F039
:100D40008DFC1F48402102F089FC33E01B48402104
:100D500002F084FC1A48802102F08EFC17488021A2
:100D600002F08AFC1548082102F078FC1448402162
:100D700002F074FC1EE01148802102F06FFC104864
:100D8000802102F06BFC0D48402102F075FC0B48FD
:100D9000082102F071FC0A48402102F05FFC09E0E2
:100DA0000748402102F068FC04E00548402102F0B9
:100DB00063FC00BF0837BD4680BD00BF0004024091
:100DC000000C02400000000080B500AF184819492F
:100DD0009FED150B03F094FC15480021012203F050
:100DE00017FD13480121012203F012FD124B1B686D
:100DF00007EE903AF8EEE77A0D480E490022B0EE81
:100E0000670A03F011FE0D4B1B6807EE903AF8EEEF
:100E1000E77A074807490122B0EE670A03F004FEAB
:100E200080BD00BFAFF30080000000000088D34009
:100E300000040040B016002000160020C01600205C
:100E400080B582B000AF0120012100F00FFC01232A
:100E50003B6000233B710023BB710223FB71022323
:100E60007B713B461F48194602F050FB02200121CE
:100E700000F0FCFBF8233B6001233B710023BB71B6
:100E80000123FB7103237B713B461748194602F08F
:100E90003DFB0420012100F0E9FBC0233B6001235E
:100EA0003B710023BB710123FB7103237B713B4624
:100EB0000E48194602F02AFB0820012100F0D6FB5B
:100EC000C0233B6001233B710023BB710123FB71F5
:100ED00003237B713B460648194602F017FB08378F
:100EE000BD4680BD000002400004024000080240F0
:100EF000000C024080B500AF4448454901F044F879
:100F00007EE0424801F01EF903461A46414B1A7032
:100F1000404B1B786D2B53D06D2B04DC2B2B07D053
:100F20002D2B1DD06CE0702B32D0722B60D067E07F
:100F3000394B1B685F2B04DC374B1B680533364A83
:100F40001360354B1B681846344902F085FA2F4868
:100F5000324901F019F82D48314901F015F84FE0F8
:100F60002D4B1B68042B04DD2B4B1B68053B2A4AC9
:100F70001360294B1B681846284902F06DFA234874
:100F8000264901F001F82148254900F0FDFF37E02E
:100F9000244B1B685F2B04DC224B1B680533214A62
:100FA0001360204B1B6818461C4902F055FA17487D
:100FB0001A4900F0E9FF1548194900F0E5FF1FE064
:100FC000184B1B68042B04DD164B1B68053B154AA8
:100FD0001360144B1B681846104902F03DFA0B4889
:100FE0000E4900F0D1FF09480D4900F0CDFF07E0A0
:100FF0000D4B6E221A6005480C4900F0C5FF00BF7A
:10100000094B1B686E2B7FF47CAF80BD0044004011
:1010100050780008041600200016002070160020EA
:10102000D0780008C016002058000020D8780008AA
:1010300080B500AF094B1B68632B0EDC084801210B
:1010400002F0F2FA0346002B02D0FFF753FF04E050
:10105000024B1B680133014A136080BD5800002019
:101060000000024080B500AF374801F06BF803463E
:101070001A46364B1A70354B1B78002B63D0334B16
:101080001B78623B112B5ED801A252F823F000BFFF
:10109000EF10000847110008471100084711000829
:1010A000D91000084711000847110008471100082F
:1010B00047110008471100081B11000847110008DC
:1010C00047110008471100084711000847110008A0
:1010D00005110008311100080020FFF7F7FD1A483C
:1010E0001B4900F051FF1B4B00221A602BE001202E
:1010F000FFF7ECFD1448184900F046FF154B00229D
:101100001A6020E00320FFF7E1FD0F48134900F0CB
:101110003BFF104B00221A6015E00220FFF7D6FDBE
:1011200009480F4900F030FF0A4B00221A600AE01C
:101130000420FFF7CBFD04480A4900F025FF054BCA
:1011400000221A6000BF80BD004400400416002049
:10115000E87800085C000020F87800080C790008A6
:101160001C7900082C79000880B584B004AF02F027
:101170008BFB354B1B68354A1360334B1B68344A75
:10118000136034480C21FFF725FA33484FF08041B3
:1011900001220023FEF7F8FF304800214FF4E1322E
:1011A00000F08AFDFFF744FFFFF74AFEFFF70CFE51
:1011B0000120FFF70FFD0020FFF70CFD0220FFF7D5
:1011C00009FD0320FFF706FD2448254900F0DCFE59
:1011D000022300930023019300230293002303932F
:1011E000204821496422002301F0D4F9032300930D
:1011F0000023019300230293002303931B481C49FF
:101200006422002301F0C6F9012300930023019317
:1012100000230293002303931648174964220023F6
:1012200001F0B8F9032300930023019300230293F4
:1012300000230393114812496422002301F0AAF904
:1012400001F0CCFAFEE700BF1400002000160020D9
:10125000C016002000200140E81500200044004096
:1012600040790008B9120008947900088512000836
:10127000A4790008F1120008B07900088913000869
:10128000BC79000880B582B000AF7860094BD3E923
:101290000023104619464FF064024FF0000305F09A
:1012A0000BFF134302D10120FFF7F2FC052001F0F0
:1012B00043FAEBE75000002080B582B000AF7860C1
:1012C000FFF7D0FE094BD3E90023104619464FF42F
:1012D000FA724FF0000305F0EFFE134302D1032032
:1012E000FFF7D6FC052001F027FAE9E750000020BF
:1012F00080B58EB000AF786000237B630020FFF7DD
:10130000AFFC1C4BD3E90023104619464FF0640292
:101310004FF0000305F0D0FE134327D116480C21EF
:10132000FFF72AFA03467B637B6B40F68C229342DD
:101330000CDD124B1B68002B08D10420FFF7C6FC04
:101340000020FFF775FC0D4B01221A6007F10C031A
:10135000786B194602F080F807F10C03084819462B
:1013600000F012FE0648074900F00EFE322001F0A0
:10137000E3F9C3E750000020002001406000002096
:1013800000440040C8790008F0B58BB000AF786029
:10139000002179620021B9610A2179617E69711E9B
:1013A0003961314608464FF000014D0145EAD065EC
:1013B0004401314608464FF000014B0143EAD06337
:1013C000420133469B0003330733DB08DB00ADEB00
:1013D000030D6B4603339B089B00FB602D4B1B6882
:1013E000012B52D12D23FB6140E000237B620023BF
:1013F0003B6216E028480C21FFF7BEF90346194668
:10140000FB683A6A43F82210FB683A6A53F82230C4
:101410007A6A13447B62012001F08EF93B6A013342
:101420003B623A6A7B699A42E4DB7A6A7B6992FBA7
:10143000F3F3BB61B869194902F00EF8184817496F
:1014400000F0A2FD1648174900F09EFDFB6907EE6B
:10145000903AF8EEE77A1448B0EE670AFEF7CCFE51
:10146000042001F069F9FB690133FB61FB69872BFB
:10147000BBDD0B480D4900F087FD0B489FED0C0AC2
:10148000FEF7BAFE034B00221A60322001F054F935
:10149000A4E700BF6000002000200140701600207B
:1014A00000440040D0790008E8150020D4790008F5
:1014B0000000B44280B400AF064BD3E900230132F0
:1014C00043F100030349C1E90023BD465DF8047BF5
:1014D000704700BF5000002080B400AF064BD3E936
:1014E0000023013243F100030349C1E90023BD4653
:1014F0005DF8047B704700BF4800002080B483B0D3
:1015000000AF4FF0500383F31188BFF36F8FBFF329
:101510004F8F7B60FEE700BF80B489B000AF78607A
:101520000023BB6100237B610023FB6102233B613D
:101530000023FB600223BB60484B9B6803F00C0355
:10154000BB61BB69042B07D0082B09D0002B3FD10E
:101550007B68434A1A603FE07B68424A1A603BE07E
:101560003E4B5B6803F480039B0DFB603B4B5B6869
:1015700003F03F03BB60FB68002B0DD0394ABB680A
:10158000B2FBF3F2354B596847F6C0730B409B0929
:1015900003FB02F3FB610CE0314ABB68B2FBF3F2E0
:1015A0002E4B596847F6C0730B409B0903FB02F3AF
:1015B000FB612A4B5B6803F440331B0C01335B0077
:1015C0003B61FA693B69B2FBF3F27B681A6003E0A6
:1015D0007B68234A1A6000BF204B9B6803F0F0032E
:1015E000BB61BB691B09BB611F4ABB6913441B7804
:1015F000DBB27B617B681A687B69DA407B685A6082
:10160000164B9B6803F4E053BB61BB699B0ABB614B
:10161000154ABB6913441B78DBB27B617B685A684F
:101620007B69DA407B689A600C4B9B6803F46043EB
:10163000BB61BB695B0BBB610B4ABB6913441B7885
:10164000DBB27B617B685A687B69DA407B68DA6071
:101650002437BD465DF8047B704700BF0038024068
:101660000024F40000127A001800002080B483B037
:1016700000AF78600B46FB70FB78002B06D0094961
:10168000084B1A6B7B6813430B6306E00549054B57
:101690001A6B7B68DB4313400B630C37BD465DF868
:1016A000047B70470038024080B483B000AF78609C
:1016B0000B46FB70FB78002B06D00949084B1A6CCF
:1016C0007B6813430B6406E00549054B1A6C7B6885
:1016D000DB4313400B640C37BD465DF8047B704759
:1016E0000038024080B483B000AF78600B46FB70D6
:1016F000FB78002B06D00949084B5A6C7B681343D2
:101700004B6406E00549054B5A6C7B68DB4313408C
:101710004B640C37BD465DF8047B704700380240CF
:1017200080B586B004AF00237B6000F07FFA134BD6
:101730001B68002B0FD0022300930023019300238A
:101740000293002303930E480E494FF48272002344
:1017500000F020FF78607B68002B09D14FF0500328
:1017600083F31188BFF36F8FBFF34F8F3B60FEE7AA
:101770007B6818460837BD4680BD00BF9800002032
:1017800095180008E479000880B588B000AFF860CB
:10179000B9607A603B600023FB611D4B1B68002B26
:1017A00030D0BB683B617B687B61FB68BB61BB6819
:1017B000052B1CDC01F032FD0346022B0BD1144B30
:1017C0001A6807F1100310461946BA6A002302F09E
:1017D000ABFBF86116E00E4B1A6807F110031046D8
:1017E00019460022002302F09FFBF8610AE0084B33
:1017F0001A6807F11003104619463A68002302F0F0
:1018000089FCF861FB6918462037BD4680BD00BFE2
:101810009800002080B588B002AF786039601C4B1A
:101820001B68DB68DB687B617B690433184602F068
:1018300001F87B69DB69012B22D17B699A697B689E
:101840001344786919463A687B6800F0B7F8034694
:10185000012B15D100230093786900217A680023B9
:10186000FFF792FF38613B69002B09D14FF050031D
:1018700083F31188BFF36F8FBFF34F8FFB60FEE7D9
:101880007B695B6A786998471837BD4680BD00BFA1
:101890009000002080B584B000AF786007F10803A5
:1018A000184600F047F8F860BB68F868194600F081
:1018B00003F800F0C5F8F1E780B584B000AF7860B8
:1018C000396000F0D1FF07F10803184600F056F820
:1018D000F860BB68002B24D13B68002B0AD17A68E2
:1018E000FB689A4206D800F0CDFF7868F968FFF7E8
:1018F00091FF18E00D4B19687A68FB68D31A084607
:10190000194602F0CFFE00F0BDFF0346002B0AD1BE
:10191000074B4FF080521A60BFF34F8FBFF36F8FAA
:1019200001E000F0AFFF1037BD4680BD98000020F9
:1019300004ED00E080B485B000AF78600E4B1B680A
:101940001B68002B0CBF01230023DBB21A467B6807
:101950001A607B681B68002B05D1074B1B68DB688E
:101960001B68FB6001E00023FB60FB68184614372E
:10197000BD465DF8047B70479000002080B584B0C0
:1019800000AF786001F014F8F8600B4B1B68FA6840
:101990009A4205D200F0EAF87B6801221A6002E060
:1019A0007B6800221A60044AFB681360FB681846D3
:1019B0001037BD4680BD00BF9C00002080B586B0BA
:1019C00000AFF860B9607A603B6000237B61FB6820
:1019D000BA685A60FB68FA681A61BA687B689A420A
:1019E00012D87A683B68D21AFB689B699A4202D384
:1019F00001237B611BE0104B1A68FB68043310461F
:101A0000194601F0DFFE12E07A683B689A4206D27E
:101A1000BA683B689A4202D301237B6107E0074B17
:101A20001A68FB6804331046194601F0CBFE7B6947
:101A300018461837BD4680BD940000209000002055
:101A400080B58CB002AF7DE0BB68002B7ADB3B69D0
:101A50007B627B6A5B69002B04D07B6A0433184687
:101A600001F0E8FE3B1D1846FFF788FF3862BB68AF
:101A7000092B66D801A252F823F000BFA51A00086E
:101A8000A51A0008A51A0008451B0008031B00083A
:101A90003B1B0008A51A0008A51A0008451B0008F2
:101AA000031B0008FA687B6A9B691A44FB68786A22
:101AB00011463A6AFFF782FF0346012B20D17B6A69
:101AC0005B6A786A98477B6ADB69012B18D1FA68F0
:101AD0007B6A9B691A4400230093786A00210023E3
:101AE000FFF752FEF861FB69002B09D14FF050035C
:101AF00083F31188BFF36F8FBFF34F8FBB61FEE796
:101B000020E0FA687B6A9A617B6A9B69002B09D1A5
:101B10004FF0500383F31188BFF36F8FBFF34F8FE4
:101B20007B61FEE77B6A9A693B6A1344786A1946CF
:101B30003A6A3B6AFFF742FF04E0786A04F0FEFA73
:101B400000E000BF084B1A6807F108031046194669
:101B50000022002302F06AFB0346002B7FF474AFDF
:101B60002837BD4680BD00BF9800002080B588B0F2
:101B700002AF44E02B4B1B68DB681B687B61294B81
:101B80001B68DB68DB683B613B690433184601F086
:101B900051FE3B695B6A386998473B69DB69012BF9
:101BA0002DD13B699A697B691344FB60FA687B69B4
:101BB0009A420ED93B69FA685A603B693A691A61E0
:101BC000184B1A683B6904331046194601F0FAFDB8
:101BD00015E000230093386900217A690023FFF79C
:101BE000D3FDB860BB68002B09D14FF0500383F3DD
:101BF0001188BFF36F8FBFF34F8F3B60FEE7094B38
:101C00001B681B68002BB5D1064B1B687B60064B1D
:101C10001B68044A1360044A7B6813601837BD468A
:101C200080BD00BF900000209400002080B582B0ED
:101C300000AF01F0AFFF1A4B1B68002B2BD11948E6
:101C400001F070FD184801F06DFD184B154A1A603F
:101C5000174B154A1A600A200C21002202F008F9DD
:101C600002460F4B1A600E4B1B68002B09D14FF038
:101C7000500383F31188BFF36F8FBFF34F8F7B60E7
:101C8000FEE7074B1B68002B05D0054B1B68184669
:101C9000084902F0DFFC01F0ABFF0837BD4680BD0C
:101CA00098000020680000207C00002090000020A8
:101CB00094000020EC79000880B58AB000AFF8608D
:101CC0000B467A60FB727B68BB61FB682D4A9342CE
:101CD0000FD1FB7A184600F05BF825233B750023F3
:101CE000BB840C237B8400233B840023FB830023E1
:101CF000BB83FB68244A93420FD1FB7A184600F05D
:101D000093F826233B750023BB840C237B8400239C
:101D10003B840023FB830023BB83FB681B4A934265
:101D20000FD1FB7A184600F0CBF847233B75002310
:101D3000BB840C237B8400233B840023FB83002390
:101D4000BB8307F11803F8681946FEF795FAF8689F
:101D50000121FEF74DFBF86840F225510122FEF704
:101D600079FB0123FB7500237B75F86800F03CFAD2
:101D70000346BB7507F11403184603F035FF2837F7
:101D8000BD4680BD001001400044004000140140E9
:101D900080B584B000AF0346FB7110200121FFF72E
:101DA000A1FC02233B730023BB730123FB730323BA
:101DB0007B73FB79002B17D101200121FFF756FC23
:101DC00017480921072201F065FC15480A2107225E
:101DD00001F060FC4FF4C063BB6007F108031048DA
:101DE000194601F093FB18E0FB79012B15D1022075
:101DF0000121FFF73BFC0B480621072201F04AFCBA
:101E000008480721072201F045FCC023BB6007F109
:101E100008030448194601F079FB1037BD4680BD20
:101E2000000002400004024080B584B000AF0346C9
:101E3000FB714FF400300121FFF736FC02233B73A6
:101E40000023BB730123FB7303237B73FB79002BFC
:101E500016D101200121FFF709FC174802210722B2
:101E600001F018FC14480321072201F013FC0C2395
:101E7000BB6007F108031048194601F047FB18E062
:101E8000FB79012B15D108200121FFF7EFFB0B484F
:101E90000521072201F0FEFB08480621072201F078
:101EA000F9FB6023BB6007F108030448194601F001
:101EB0002DFB1037BD4680BD00000240000C0240E3
:101EC00080B584B000AF0346FB7120200121FFF7ED
:101ED00009FC02233B730023BB730123FB73032321
:101EE0007B73FB79002B16D104200121FFF7BEFB89
:101EF00017480621082201F0CDFB154807210822CA
:101F000001F0C8FBC023BB6007F108031048194665
:101F100001F0FCFA19E0FB79012B16D140200121D8
:101F2000FFF7A4FB0B480E21082201F0B3FB094880
:101F30000921082201F0AEFB4FF48443BB6007F196
:101F400008030448194601F0E1FA1037BD4680BD88
:101F5000000802400018024080B582B000AF7860EF
:101F60000B46FB7000BF78688021FEF7BBFA034682
:101F7000002BF8D0FB78DBB29BB278681946FEF7ED
:101F800057FA0837BD4680BD80B582B000AF786093
:101F9000396007E03B685A1C3A601B78786819463C
:101FA000FFF7DAFF3B681B78002BF3D10837BD46FB
:101FB00080BD00BF80B500AF084840F22551FEF754
:101FC000ADFA0346002B07D0044B9B889BB2DBB2D3
:101FD0000020194600F072F880BD00BF00100140DB
:101FE00080B500AF084840F22551FEF797FA034646
:101FF000002B07D0044B9B889BB2DBB20120194613
:1020000000F05CF880BD00BF0044004080B500AF28
:10201000084840F22551FEF781FA0346002B07D00D
:10202000044B9B889BB2DBB20220194600F046F8B5
:1020300080BD00BF0048004080B500AF084840F2B6
:102040002551FEF76BFA0346002B07D0044B9B8803
:102050009BB2DBB20320194600F030F880BD00BF10
:10206000004C004080B500AF084840F22551FEF713
:1020700055FA0346002B07D0044B9B889BB2DBB27A
:102080000420194600F01AF880BD00BF005000403F
:1020900080B500AF084840F22551FEF73FFA0346ED
:1020A000002B07D0044B9B889BB2DBB2052019465E
:1020B00000F004F880BD00BF0014014080B483B07C
:1020C00000AF03460A46FB711346BB71FB791A4AFF
:1020D00032F813301F2B29D8FB79184A32F8133005
:1020E0001F2B04D9FB79154A002122F81310FB7924
:1020F000FA79124931F812201046B979104A5B0179
:10210000034413440A461A70FB790C4A32F8132030
:10211000013291B2094A22F81310FB79064A32F8CB
:102120001320013291B2044A22F813100C37BD4635
:102130005DF8047B704700BFC0000020A0000020B5
:10214000C416002080B584B000AF7860786800F0D5
:102150004BF80346BB730023FB73BB7B1F4A32F86B
:102160001330002B34D0BB7B1D4A32F813301F2BA9
:1021700004D9BB7B1A4A002122F81310BB7BBA7B1F
:10218000174931F812201146164A5B010B441344DB
:102190001B78FB73BB7BBA7B114931F812201146C7
:1021A000104A5B010B44134400221A70BB7B0C4A9B
:1021B00032F81320013291B2094A22F81310BB7B86
:1021C000064A32F81320013A91B2044A22F8131059
:1021D000FB7B18461037BD4680BD00BFC000002005
:1021E000B0000020C416002080B483B000AF786037
:1021F0007B68154A934201D100231EE07B68134A95
:10220000934201D1012318E07B68114A934201D126
:10221000022312E07B680F4A934201D103230CE0B2
:102220007B680D4A934201D1042306E07B680B4A88
:10223000934201D1052300E0002318460C37BD4628
:102240005DF8047B704700BF00100140004400406F
:1022500000480040004C0040005000400014014085
:1022600080B485B000AF786039600023FB60002344
:10227000FB727B685B68FB60FB6823F0407323F4B0
:102280008073FB603B681B791A023B681B68134331
:10229000FA681343FB607B68FA685A607B689B6846
:1022A000FB60FA68174B1340FB603B681A693B6898
:1022B000DB681A433B689B681A433B685B795B00A9
:1022C0001343FA681343FB607B68FA689A607B6883
:1022D000DB6AFB60FB6823F47003FB603B681B7DDB
:1022E000013BDAB2FB7A1343FB72FB7A1B05FA68F7
:1022F0001343FB607B68FA68DA621437BD465DF809
:10230000047B7047FDF7FFC080B485B000AF7860F4
:102310000023FB600E4B5B68FB60FA680D4B1340BB
:10232000FB607B681A687B685B681A437B689B6804
:102330001A437B68DB681343FA681343FB60044A63
:10234000FB6853601437BD465DF8047B704700BFDF
:1023500000230140E030FCFF80B483B000AF786020
:102360000B46FB70FB78002B06D07B689B6843F024
:1023700001027B689A6005E07B689B6823F001029C
:102380007B689A600C37BD465DF8047B704700BFE0
:1023900080B485B000AF7860084611461A460346FF
:1023A000FB700B46BB7013467B700023FB60002361
:1023B000BB60FB78092B23D97B68DB68FB60FB786B
:1023C000A3F10A0213465B001344072202FA03F347
:1023D000BB60BB68DB43FA681340FB607978FB782D
:1023E000A3F10A0213465B00134401FA03F3BB6036
:1023F000FA68BB681343FB607B68FA68DA601EE02A
:102400007B681B69FB60FA7813465B001344072264
:1024100002FA03F3BB60BB68DB43FA681340FB605E
:102420007978FA7813465B00134401FA03F3BB6032
:10243000FA68BB681343FB607B68FA681A61BB7873
:10244000062B21D87B685B6BFB60BB785A1E13465A
:102450009B0013441F2202FA03F3BB60BB68DB43FB
:10246000FA681340FB60F978BB785A1E13469B004C
:10247000134401FA03F3BB60FA68BB681343FB60C3
:102480007B68FA685A6347E0BB780C2B21D87B68DD
:102490001B6BFB60BB78DA1F13469B0013441F22A3
:1024A00002FA03F3BB60BB68DB43FA681340FB60CE
:1024B000F978BB78DA1F13469B00134401FA03F343
:1024C000BB60FA68BB681343FB607B68FA681A63F9
:1024D00022E07B68DB6AFB60BB78A3F10D02134648
:1024E0009B0013441F2202FA03F3BB60BB68DB436B
:1024F000FA681340FB60F978BB78A3F10D0213462C
:102500009B00134401FA03F3BB60FA68BB681343F2
:10251000FB607B68FA68DA621437BD465DF8047BBD
:10252000704700BF80B483B000AF78607B689B6861
:1025300043F080427B689A600C37BD465DF8047BAF
:10254000704700BF80B483B000AF78607B68DB6CFD
:102550009BB218460C37BD465DF8047B704700BF40
:1025600080B485B000AF78600B46FB700023FB732E
:102570007B681A68FB781340002B02D00123FB73A1
:1025800001E00023FB73FB7B18461437BD465DF862
:10259000047B704780B58CB002AFF860B9603B60D7
:1025A0001346FB80FB68002B09D14FF0500383F3E7
:1025B0001188BFF36F8FBFF34F8FBB61FEE73B6B9B
:1025C000042B09D94FF0500383F31188BFF36F8FA9
:1025D000BFF34F8F7B61FEE7FB881846B96B00F0B5
:1025E000B1FD38623B6A002B7AD03B6A1A6BFB88DC
:1025F00003F18043013B9B001344FB61FB6923F023
:102600000703FB61FB6903F00703002B09D04FF0C0
:10261000500383F31188BFF36F8FBFF34F8F3B617C
:10262000FEE7FB880093386AB9683A6BFB6B00F0F1
:1026300089FCF869F9683A6801F0D4F902463B6A06
:102640001A607B6B002B02D07B6B3A6A1A6001F038
:10265000A1FA324B1B680133304A1360304B1B68C0
:10266000002B09D12E4A3B6A13602C4B1B68012BAF
:102670000FD100F0B9FC0CE02A4B1B68002B08D1ED
:10268000274B1B68DA6A3B6B9A4202D8244A3B6AA2
:102690001360254B1B680133234A1360224B1A68D1
:1026A0003B6A5A643B6ADB6A1A46012303FA02F268
:1026B0001E4B1B6813431D4A13603B6ADA6A1346BC
:1026C0009B0013449B001A4A1A443B6A0433104689
:1026D000194601F053F801237B6201F089FA02E008
:1026E0004FF0FF337B627B6A012B11D10D4B1B68CE
:1026F000002B0DD00A4B1B68DA6A3B6B9A4207D25B
:102700000C4B4FF080521A60BFF34F8FBFF36F8FA7
:102710007B6A18462837BD4680BD00BFA80100204F
:10272000D0000020B4010020C4010020B00100202E
:10273000D400002004ED00E080B586B000AF7860E2
:1027400000237B617B68002B2FD01F4B1B68002B65
:1027500009D04FF0500383F31188BFF36F8FBFF39D
:102760004F8FFB60FEE700F07FF8184B1A687B681C
:1027700013443B61164B1B680433184601F05AF8AA
:102780000346002B0BD1124B1B68DB6A1A46012350
:102790009340DA430F4B1B6813400E4A13603869AD
:1027A00000F09AFC00F06EF878617B69002B07D18D
:1027B000094B4FF080521A60BFF34F8FBFF36F8FFA
:1027C0001837BD4680BD00BFC8010020AC01002005
:1027D000D0000020B001002004ED00E080B588B0FA
:1027E00004AF0023009300230193002302930023EE
:1027F00003931948194982220023FFF7CBFEF860A2
:10280000FB68012B02D1FEF78BFFF860FB68012B00
:1028100011D14FF0500383F31188BFF36F8FBFF3D3
:102820004F8FBB600E4B01221A600E4B00221A60C4
:1028300001F048F90CE0FB68002B09D14FF0500380
:1028400083F31188BFF36F8FBFF34F8F7B60FEE779
:102850001037BD4680BD00BF112F0008F479000875
:10286000B4010020AC01002080B400AF044B1B6811
:102870000133034A1360BD465DF8047B704700BF17
:10288000C801002080B584B000AF0023FB603F4B3F
:102890001B68002B09D14FF0500383F31188BFF35D
:1028A0006F8FBFF34F8F7B60FEE701F073F9374BFB
:1028B0001B68013B354A1360344B1B68002B5DD10C
:1028C000334B1B68002B59D030E0324BDB68DB68A0
:1028D000BB60BB681833184600F0ACFFBB6804331C
:1028E000184600F0A7FFBB68DB6A1A46012303FA0B
:1028F00002F2294B1B681343274A1360BB68DA6A4C
:1029000013469B0013449B00244A1A44BB680433BB
:102910001046194600F032FFBB68DA6A204B1B688C
:10292000DB6A9A4202D31F4B01221A60194B1B68C3
:10293000002BCAD11C4B1B68002B11D00CE000F0FF
:1029400047F80346002B02D0164B01221A60164BA3
:102950001B68013B144A1360134B1B68002BEED11C
:10296000104B1B68012B09D10123FB600F4B4FF06B
:1029700080521A60BFF34F8FBFF36F8F01F038F9A9
:10298000FB6818461037BD4680BD00BFC801002057
:10299000A801002068010020B0010020D400002020
:1029A000D0000020BC010020B801002004ED00E0B0
:1029B00080B483B000AF054B1B687B607B68184612
:1029C0000C37BD465DF8047B704700BFAC010020AA
:1029D00080B586B000AF00237B61564B1B68002B8F
:1029E00040F09580544B1B680133534A1360524B9F
:1029F0001B683B613B69002B1FD1504B1B681B6858
:102A0000002B09D04FF0500383F31188BFF36F8F71
:102A1000BFF34F8F3B60FEE7484B1B68FB60484BA2
:102A20001B68464A1360464AFB681360454B1B68A7
:102A30000133444A136000F0CDFB434B1B683A69F5
:102A40009A424FD33D4B1B681B68002B01D10123D9
:102A500000E00023002B04D03B4B4FF0FF321A6004
:102A600040E0364B1B68DB68DB68BB60BB685B68BB
:102A70007B603A697B689A4203D2334A7B68136071
:102A800030E0BB680433184600F0D4FEBB689B6A94
:102A9000002B04D0BB681833184600F0CBFEBB688F
:102AA000DB6A1A46012303FA02F2284B1B68134320
:102AB000264A1360BB68DA6A13469B0013449B00E6
:102AC000234A1A44BB6804331046194600F056FEE8
:102AD000BB68DA6A1F4B1B68DB6A9A4201D3012389
:102AE0007B61AFE71B4B1B68DA6A194913469B00F1
:102AF00013449B000B441B68012B01D901237B610C
:102B0000154B1B68002B09D1FEF7D4FC06E0124BD5
:102B10001B680133104A1360FEF7CCFC0F4B1B6897
:102B2000002B01D001237B617B6918461837BD4615
:102B300080BD00BFC8010020AC0100206001002062
:102B400064010020C001002028000020B001002006
:102B5000D4000020D0000020B8010020BC010020DB
:102B600080B487B000AF264B1B68002B03D0254BE9
:102B700001221A603EE0234B00221A60224B1B68A0
:102B8000FB60FB68B3FA83F3FB72FB7AC3F11F03AC
:102B90007B611E497A6913469B0013449B000B44DA
:102BA0001B68002B09D14FF0500383F31188BFF34A
:102BB0006F8FBFF34F8F7B60FEE77A6913469B00F0
:102BC00013449B00114A13443B613B695B685A689C
:102BD0003B695A603B695A683B6908339A4204D1A1
:102BE0003B695B685A683B695A603B695B68DB68B4
:102BF000074A13601C37BD465DF8047B704700BF71
:102C0000C8010020BC010020B0010020D400002039
:102C1000D000002080B584B000AF786039607B6858
:102C2000002B09D14FF0500383F31188BFF36F8F4E
:102C3000BFF34F8FBB60FEE7194B1B6818337868F2
:102C4000194600F0BFFD164B1B680433184600F010
:102C5000F1FD0346002B0BD1114B1B68DB6A1A46B2
:102C600001239340DA430F4B1B6813400D4A136056
:102C70003B68B3F1FF3F07D1094B1B6804330A4897
:102C8000194600F07BFD07E0084B1A683B681344C7
:102C9000FB60F86800F020FA1037BD4680BD00BF29
:102CA000D0000020B001002094010020AC010020E1
:102CB00080B584B000AF786039607B68002B09D1A3
:102CC0004FF0500383F31188BFF36F8FBFF34F8F23
:102CD000BB60FEE7134B1B6818337868194600F099
:102CE0004DFD104B1B680433184600F0A3FD03464E
:102CF000002B0BD10B4B1B68DB6A1A460123934058
:102D0000DA43094B1B681340074A1360074B1A68E4
:102D10003B681344FB60F86800F0DEF91037BD46ED
:102D200080BD00BFD0000020B0010020AC01002019
:102D300080B586B000AF78607B68DB68DB683B619C
:102D40003B69002B09D14FF0500383F31188BFF387
:102D50006F8FBFF34F8FFB60FEE73B691833184658
:102D600000F068FD1E4B1B68002B1ED13B6904332D
:102D7000184600F05FFD3B69DB6A1A46012303FA3F
:102D800002F2184B1B681343164A13603B69DA6A58
:102D900013469B0013449B00134A1A443B690433B7
:102DA0001046194600F0EAFC05E03B6918330F486D
:102DB000194600F0E3FC3B69DA6A0D4B1B68DB6ADD
:102DC0009A4205D901237B610A4B01221A6001E076
:102DD00000237B617B6918461837BD4680BD00BF64
:102DE000C8010020B0010020D400002068010020AC
:102DF000D0000020BC01002080B485B000AF786016
:102E00007B68002B09D14FF0500383F31188BFF387
:102E10006F8FBFF34F8FFB60FEE7064B1A687B682E
:102E20001A60054B1A687B685A601437BD465DF816
:102E3000047B7047C0010020AC01002080B586B043
:102E400000AF786039607B68002B09D14FF05003E8
:102E500083F31188BFF36F8FBFF34F8FFB60FEE7E3
:102E60003B68002B09D14FF0500383F31188BFF367
:102E70006F8FBFF34F8FBB60FEE700F08BFE1C4BE4
:102E80001B683B613B681B68B3F1FF3F02D1002325
:102E90007B6126E07B681A68164B1B689A4207D054
:102EA0007B685A683B699A4202D801237B6118E02B
:102EB0007B685B683A69D21A3B681B689A420ED2FB
:102EC0003B681A687B6859683B69CB1A1A443B68AF
:102ED0001A607868FFF790FF00237B6101E001230F
:102EE0007B6100F085FE7B6918461837BD4680BDC2
:102EF000AC010020C001002080B400AF034B0122D0
:102F00001A60BD465DF8047B704700BFBC0100201D
:102F100080B582B000AF786000F0A4F8074B1B6862
:102F2000012B07D9064B4FF080521A60BFF34F8F29
:102F3000BFF36F8FFEF7D0FAEEE700BFD40000209A
:102F400004ED00E080B586B000AFF860B9607A604B
:102F50003B6000237B6113E0BA687B6913441978F6
:102F6000FA687B69134430330A461A71BA687B6980
:102F700013441B78002B00D105E07B6901337B6192
:102F80007B690E2BE8D9FB68002283F842207B681E
:102F9000042B01D904237B60FB687A68DA62FB6842
:102FA0007A68DA64FB6800221A65FB680433184605
:102FB00000F0D8FBFB681833184600F0D3FBFB6821
:102FC000FA681A617B68C3F10502FB689A61FB68C5
:102FD000FA685A62FB6800225A65FB68002283F88F
:102FE00058201837BD4680BD80B582B000AF0023A1
:102FF0007B600CE07A6813469B0013449B00114AE7
:103000001344184600F08EFB7B6801337B607B68BD
:10301000042BEFD90C4800F085FB0C4800F082FB34
:103020000B4800F07FFB0B4800F07CFB0A4800F0E7
:1030300079FB0A4B044A1A60094B044A1A600837A4
:10304000BD4680BDD4000020380100204C01002086
:10305000680100207C010020940100206001002014
:103060006401002080B582B000AF28E0FFF7FCFBD0
:10307000164B1B68002B0CBF01230023DBB27B60C7
:10308000FFF700FC7B68002B19D100F083FD0F4B8C
:10309000DB68DB683B603B680433184600F0CAFB22
:1030A0000B4B1B68013B0A4A13600A4B1B68013B30
:1030B000084A136000F09CFD386800F07BF8054B6F
:1030C0001B68002BD2D10837BD4680BD7C01002093
:1030D000A80100209001002080B582B000AF786088
:1030E000134B1B687A685A60124B1B687A689A42C5
:1030F00009D2114B1A680E4B1B680433104619464F
:1031000000F060FB10E00D4B1A68094B1B6804339C
:103110001046194600F056FB094B1B687A689A4224
:1031200002D2074A7B6813600837BD4680BD00BFE6
:10313000D0000020AC0100206401002060010020CC
:103140002800002080B584B000AF03463960FB80C2
:103150003B68002B06D1FB889B00184602F05CFF01
:10316000034600E03B68BB60BB68002B0ED05C20D0
:1031700002F052FFF860FB68002B03D0FB68BA68CE
:103180001A6305E0B86802F0D9FF01E00023FB6094
:10319000FB68002B08D0FB681A6BFB889B0010466D
:1031A000A5211A4604F0EEFAFB6818461037BD4612
:1031B00080BD00BF80B582B000AF78607B681B6BBC
:1031C000184602F0BBFF786802F0B8FF0837BD462A
:1031D00080BD00BF80B483B000AF0E4B1B681B687E
:1031E000002B01D1012300E00023002B04D00A4B67
:1031F0004FF0FF321A6008E0064B1B68DB68DB68A3
:103200007B607B685B68044A13600C37BD465DF8E1
:10321000047B7047600100202800002080B483B048
:1032200000AF0B4B1B68002B02D101237B6008E031
:10323000084B1B68002B02D102237B6001E00023B6
:103240007B607B6818460C37BD465DF8047B704791
:10325000B4010020C801002080B584B000AF7860C0
:103260007B68FB607B68002B64D0FB68DA6A334BB9
:103270001B68DB6A9A425DD2FB689B69002B06DB08
:103280002E4B1B68DB6AC3F10502FB689A61FB6881
:103290005969FB68DA6A13469B0013449B00284A6D
:1032A0001344994201D1012300E00023002B3CD0BC
:1032B000FB680433184600F0BDFA0346002B15D115
:1032C000FB68DA6A1E4913469B0013449B000B44BB
:1032D0001B68002B0AD1FB68DB6A1A460123934066
:1032E000DA43184B1B681340164A1360134B1B68D4
:1032F000DA6AFB68DA62FB68DB6A1A46012303FAC2
:1033000002F2104B1B6813430E4A1360FB68DA6A23
:1033100013469B0013449B00094A1A44FB6804337C
:103320001046194600F02AFA04E0044B1B68DA6ADA
:10333000FB68DA621037BD4680BD00BFD0000020B8
:10334000D4000020B001002080B586B000AF7860C6
:103350007B683B6100237B617B68002B5FD03B690E
:103360001B6D002B09D14FF0500383F31188BFF37D
:103370006F8FBFF34F8FFB60FEE73B691B6D5A1EDB
:103380003B691A653B69DA6A3B69DB6C9A4246D055
:103390003B691B6D002B42D13B690433184600F09A
:1033A00049FA0346002B15D13B69DA6A1E491346D8
:1033B0009B0013449B000B441B68002B0AD13B6904
:1033C000DB6A1A4601239340DA43184B1B6813400B
:1033D000164A13603B69DA6C3B69DA623B69DB6A67
:1033E000C3F105023B699A613B69DB6A1A46012316
:1033F00003FA02F20D4B1B6813430C4A13603B693E
:10340000DA6A13469B0013449B00074A1A443B693F
:1034100004331046194600F0B1F901237B617B6942
:1034200018461837BD4680BDD4000020B0010020EA
:1034300080B400AF074B1B68002B04D0054B1B6802
:103440001A6D01321A65034B1B681846BD465DF8BC
:10345000047B7047D000002080B489B000AF786052
:103460003960284A07F10C0307CA03C31A800233E4
:10347000120C1A703B68FB617B68002B07DAFB6952
:103480005A1CFA612D221A707B685B427B607B6854
:10349000BB61FB690133FB61BB691B4A82FB031201
:1034A0009210DB17D31ABB61BB69002BF1D1FB690A
:1034B00000221A70FB69013BFB617968124B83FBA8
:1034C00001239A10CB17D21A13469B0013445B00BA
:1034D000CA1A07F12003134413F8142CFB691A705D
:1034E0007B68094A82FB03129210DB17D31A7B60B8
:1034F0007B68002BDED13B6818462437BD465DF85B
:10350000047B7047FC7900086766666680B487B004
:1035100000AF7860396000237B6100233B610023AA
:10352000FB6000237B6176E07B69012202FA03F3F2
:103530003B613B681A683B691340FB60FA683B6972
:103540009A4265D17B681A687B695B001946032340
:103550008B40DB431A407B681A607B681A683B68C3
:103560001B7919467B695B0001FA03F31A437B68F8
:103570001A603B681B79012B03D03B681B79022B37
:103580002ED17B689A687B695B00194603238B40C8
:10359000DB431A407B689A607B689A683B685B797A
:1035A00019467B695B0001FA03F31A437B689A6052
:1035B0007B685A687B699BB2194601238B40DB43C9
:1035C0001A407B685A607B685B683A68927911465A
:1035D0007A6992B201FA02F292B21A437B685A6097
:1035E0007B68DA687B699BB25B00032101FA03F315
:1035F000DB431A407B68DA607B68DA683B68DB791A
:1036000019467B695B0001FA03F31A437B68DA60B1
:103610007B6901337B617B690F2B85D91C37BD46E4
:103620005DF8047B704700BF80B485B000AF786060
:103630000B467B800023FB737B681A697B881340F1
:10364000002B02D00123FB7301E00023FB73FB7B03
:1036500018461437BD465DF8047B704780B483B0CC
:1036600000AF78600B467B807B687A881A830C37C2
:10367000BD465DF8047B704780B483B000AF7860CE
:103680000B467B807B687A885A830C37BD465DF891
:10369000047B704780B485B000AF78600B467B80B8
:1036A00013467B700023FB600023BB607B787A8825
:1036B00002F0070292009340FB607B88DB089BB21C
:1036C00018467B88DB089BB21A467B68083253F8A1
:1036D00022207B8803F007039B0019460F238B40B1
:1036E000DB4302EA03017B6800F1080243F8221081
:1036F0007B88DB089BB21A467B68083253F822208D
:10370000FB681343BB607B88DB089BB21A467B686F
:103710000832B96843F822101437BD465DF8047BBF
:10372000704700BF80B483B000AF78607B6803F15E
:1037300008027B685A607B684FF0FF329A607B68B2
:1037400003F108027B68DA607B6803F108027B689A
:103750001A617B6800221A600C37BD465DF8047B55
:10376000704700BF80B483B000AF78607B680022F0
:103770001A610C37BD465DF8047B704780B485B094
:1037800000AF786039607B685B68FB603B68FA6813
:103790005A60FB689A683B689A60FB689B683A6865
:1037A0005A60FB683A689A603B687A681A617B687D
:1037B0001B685A1C7B681A601437BD465DF8047B91
:1037C000704700BF80B485B000AF786039603B6857
:1037D0001B68BB60BB68B3F1FF3F03D17B681B690B
:1037E000FB600CE07B680833FB6002E0FB685B6811
:1037F000FB60FB685B681A68BB689A42F6D9FB6895
:103800005A683B685A603B685B683A689A603B68F4
:10381000FA689A60FB683A685A603B687A681A618D
:103820007B681B685A1C7B681A601437BD465DF8BC
:10383000047B704780B485B000AF78607B681B69FB
:10384000FB607B685B687A6892689A607B689B68BB
:103850007A6852685A60FB685A687B689A4203D15A
:103860007B689A68FB685A607B6800221A61FB6873
:103870001B685A1EFB681A60FB681B6818461437E1
:10388000BD465DF8047B704780B500AF154A154B07
:10389000D3F8883043F47003C2F88830124A124BD0
:1038A0001B6843F0010313600F4B00229A600E4A1D
:1038B0000D4B1B6823F0847323F4803313600A4B91
:1038C0000A4A5A60084A084B1B6823F48023136095
:1038D000054B0022DA6000F00BF8024B4FF000625B
:1038E0009A6080BD00ED00E00038024010300024F6
:1038F00080B483B000AF00237B6000233B60354A77
:10390000344B1B6843F480331360324B1B6803F461
:1039100000333B607B6801337B603B68002B03D145
:103920007B68B3F5A06FF0D12A4B1B6803F400331A
:10393000002B02D001233B6001E000233B603B6889
:10394000012B42D1234A234B1B6C43F08053136459
:10395000214A214B1B6843F4804313601D4A1D4BD1
:103960009B6893601B4A1B4B9B6843F40043936026
:10397000184A184B9B6843F4A0539360154B174AA1
:103980005A60144A134B1B6843F08073136000BFE6
:10399000104B1B6803F00073002BF9D0104B40F262
:1039A00005621A600B4A0B4B9B6823F0030393607C
:1039B000084A084B9B6843F00203936000BF054B25
:1039C0009B6803F00C03082BF9D10C37BD465DF85A
:1039D000047B7047003802400070004008544107E3
:1039E000003C024080B485B000AFF860B9607A60F6
:1039F000FB68043BFB60FB684FF080721A60FB6859
:103A0000043BFB60BA68FB681A60FB68043BFB6020
:103A10000C4AFB681A60FB68143BFB607A68FB6821
:103A20001A60FB68043BFB60FB686FF002021A60DF
:103A3000FB68203BFB60FB6818461437BD465DF809
:103A4000047B7047493A000880B483B000AF0C4B48
:103A50001B68B3F1FF3F09D04FF0500383F3118887
:103A6000BFF36F8FBFF34F8F7B60FEE74FF05003C4
:103A700083F31188BFF36F8FBFF34F8F3B60FEE777
:103A800040000020064B19680868B0E8F04F80F34A
:103A90000988BFF36F8F4FF0000080F311887047E3
:103AA000D000002006480068006880F3088862B6ED
:103AB00061B6BFF34F8FBFF36F8F00DF00BF000011
:103AC00008ED00E080B584B000AF2C4BFB60FB68D4
:103AD0001B78DBB2BB60FB68FF221A70FB681B78A7
:103AE000DBB2FB71FB79DBB203F05003DAB2244B9B
:103AF0001A70244B07221A6009E0224B1B68013B15
:103B0000204A1360FB79DBB25B00DBB2FB71FB790F
:103B1000DBB2DBB25BB2002BEFDB1A4B1B681B0284
:103B2000184A1360174B1B6803F4E063154A1360CF
:103B3000BB68DAB2FB681A70134A134B1B6843F474
:103B400070031360104A104B1B6843F070431360FE
:103B500000F0C6F80D4B00221A6000F0DBF80C4AAA
:103B60000B4B1B6843F040431360FFF79BFFFFF7CD
:103B70006BFF002318461037BD4680BD00E400E00F
:103B8000CC010020D001002020ED00E0400000200A
:103B900034EF00E080B483B000AF4FF0500383F304
:103BA0001188BFF36F8FBFF34F8F7B600E4B1B6885
:103BB00001330D4A13600C4B1B68012B0ED10B4BCC
:103BC0001B68DBB2002B09D04FF0500383F3118840
:103BD000BFF36F8FBFF34F8F3B60FEE70C37BD46DF
:103BE0005DF8047B704700BF4000002004ED00E05A
:103BF00080B483B000AF104B1B68002B09D14FF08D
:103C0000500383F31188BFF36F8FBFF34F8F7B6037
:103C1000FEE7094B1B68013B074A1360064B1B6814
:103C2000002B04D100233B603B6883F311880C37E1
:103C3000BD465DF8047B704740000020EFF309802B
:103C4000BFF36F8F144B1A681EF0100F08BF20EDE2
:103C5000108A20E9F04F10604DF8043D4FF05000FD
:103C600080F31188BFF34F8FBFF36F8FFEF778FF9C
:103C70004FF0000080F3118808BC19680868B0E8AC
:103C8000F04F1EF0100F08BFB0EC108A80F30988C7
:103C9000BFF36F8F704700BFD000002080B584B0A5
:103CA00000AFEFF311824FF0500383F31188BFF39D
:103CB0006F8FBFF34F8FFA60BB60FEF789FE03463C
:103CC000002B03D0054B4FF080521A6000237B601D
:103CD0007B6883F311881037BD4680BD04ED00E09A
:103CE00080B400AF074A084B1B680849A1FB0313C7
:103CF0009B09013B1360064B07221A60BD465DF825
:103D0000047B704714E000E02C000020D34D6210CB
:103D100010E000E0DFF80C00016841F47001016080
:103D20007047000088ED00E080B485B000AFEFF38D
:103D30000583FB60FB680F2B13D9154AFB681344FE
:103D40001B78FB72134B1B78FA7A9A4209D24FF018
:103D5000500383F31188BFF36F8FBFF34F8F7B60E6
:103D6000FEE70D4B1B6803F4E0620C4B1B689A42A4
:103D700009D94FF0500383F31188BFF36F8FBFF35E
:103D80004F8F3B60FEE71437BD465DF8047B7047FC
:103D9000F0E300E0CC0100200CED00E0D0010020B9
:103DA00080B584B000AF786039607B68FB60FB68E9
:103DB000002B09D14FF0500383F31188BFF36F8FAD
:103DC000BFF34F8FBB60FEE7FFF7E4FEFB681A68A6
:103DD000FB68DB6BF968096C01FB03F31A44FB68B1
:103DE0005A60FB6800229A63FB681A68FB689A6055
:103DF000FB681A68FB68DB6B013BF968096C01FB27
:103E000003F31A44FB68DA60FB684FF0FF325A6430
:103E1000FB684FF0FF329A643B68002B14D1FB68BB
:103E20001B69002B1AD0FB6810331846FEF780FF81
:103E30000346012B12D10D4B4FF080521A60BFF395
:103E40004F8FBFF36F8F09E0FB6810331846FFF701
:103E500069FCFB6824331846FFF764FCFFF7C8FED3
:103E6000012318461037BD4680BD00BF04ED00E0B9
:103E700080B58AB000AFF860B9601346FB710023CB
:103E80003B62FB68002B09D14FF0500383F311888C
:103E9000BFF36F8FBFF34F8F7B61FEE7BB68002BD3
:103EA00002D100237B6205E0FB68BA6802FB03F3E2
:103EB00001337B627B6A5433184602F0ADF8F86137
:103EC000FB69002B1DD0FB69BB61BB68002B03D1D4
:103ED000BB69BA691A6004E0FB6903F15402BB696B
:103EE0001A60BB69FA68DA63BB69BA681A64B869B0
:103EF0000121FFF755FFBB69FA7983F85020BB69B0
:103F00003B623B6A002B09D14FF0500383F31188C9
:103F1000BFF36F8FBFF34F8F3B61FEE73B6A1846DD
:103F20002837BD4680BD00BF80B58EB000AFF860B9
:103F3000B9607A603B6000237B63FB683B633B6B4B
:103F4000002B09D14FF0500383F31188BFF36F8F1B
:103F5000BFF34F8FBB62FEE7BB68002B03D13B6B07
:103F60001B6C002B01D1012300E00023002B09D1A1
:103F70004FF0500383F31188BFF36F8FBFF34F8F60
:103F80007B62FEE73B68022B03D13B6BDB6B012BB3
:103F900001D1012300E00023002B09D14FF0500391
:103FA00083F31188BFF36F8FBFF34F8F3B62FEE740
:103FB000FFF734F90346002B02D17B68002B01D1B7
:103FC000012300E00023002B09D14FF0500383F3BD
:103FD0001188BFF36F8FBFF34F8FFB61FEE7FFF7D1
:103FE000D9FD3B6B9A6B3B6BDB6B9A4202D33B6810
:103FF000022B29D1386BB9683A6800F01DFAF862D3
:104000003B6B5B6A002B10D03B6B24331846FEF7EA
:104010008FFE0346012B13D13D4B4FF080521A60A7
:10402000BFF34F8FBFF36F8F0AE0FB6A002B07D0FF
:10403000374B4FF080521A60BFF34F8FBFF36F8F33
:10404000FFF7D6FD01235FE07B68002B03D1FFF76C
:10405000CFFD002358E07B6B002B06D107F1140342
:104060001846FEF7C9FE01237B63FFF7C1FDFEF78B
:10407000FBFBFFF78FFD3B6B5B6CB3F1FF3F02D1A6
:104080003B6B00225A643B6B9B6CB3F1FF3F02D148
:104090003B6B00229A64FFF7ABFD07F114023B1D56
:1040A00010461946FEF7CAFE0346002B24D1386B92
:1040B00000F0B8FA0346002B18D03B6B03F1100256
:1040C0007B6810461946FEF7A5FD386B00F048FAEC
:1040D000FEF7D8FB0346002B15D10D4B4FF0805255
:1040E0001A60BFF34F8FBFF36F8F0CE0386B00F097
:1040F00037FAFEF7C7FB72E7386B00F031FAFEF7CC
:10410000C1FB002300E06AE718463837BD4680BD92
:1041100004ED00E080B58EB000AFF860B9607A6061
:104120003B60FB683B633B6B002B09D14FF05003B6
:1041300083F31188BFF36F8FBFF34F8FBB62FEE72E
:10414000BB68002B03D13B6B1B6C002B01D10123FF
:1041500000E00023002B09D14FF0500383F31188B6
:10416000BFF36F8FBFF34F8F7B62FEE73B68022B7D
:1041700003D13B6BDB6B012B01D1012300E000235A
:10418000002B09D14FF0500383F31188BFF36F8FD9
:10419000BFF34F8F3B62FEE7FFF7C6FDEFF31182DF
:1041A0004FF0500383F31188BFF36F8FBFF34F8F2E
:1041B000FA61BB61FB69FB623B6B9A6B3B6BDB6B30
:1041C0009A4202D33B68022B24D1386BB9683A6813
:1041D00000F032F93B6B9B6CB3F1FF3F12D13B6BAC
:1041E0005B6A002B13D03B6B24331846FEF7A0FD0F
:1041F0000346002B0BD07B68002B08D07B68012284
:104200001A6004E03B6B9B6C5A1C3B6B9A64012365
:104210007B6301E000237B63FB6A7B617B6983F343
:1042200011887B6B18463837BD4680BD80B58CB091
:1042300000AFF860B9607A603B600023FB62FB6806
:10424000BB62BB6A002B09D14FF0500383F3118886
:10425000BFF36F8FBFF34F8F3B62FEE7BB68002B4E
:1042600003D1BB6A1B6C002B01D1012300E00023AA
:10427000002B09D14FF0500383F31188BFF36F8FE8
:10428000BFF34F8FFB61FEE7FEF7C8FF0346002B2D
:1042900002D17B68002B01D1012300E00023002B19
:1042A00009D14FF0500383F31188BFF36F8FBFF331
:1042B0004F8FBB61FEE7FFF76DFCBB6A9B6B002B6A
:1042C00047D0BB6ADB687B62B86AB96800F022F944
:1042D0003B68002B22D1BB6A9B6B5A1EBB6A9A6358
:1042E000BB6A1B68002B04D1FFF7A2F80246BB6A29
:1042F0005A60BB6A1B69002B27D0BB6A1033184673
:10430000FEF716FD0346012B1FD14A4B4FF080529A
:104310001A60BFF34F8FBFF36F8F16E0BB6A7A6AE4
:10432000DA60BB6A5B6A002B0FD0BB6A2433184685
:10433000FEF7FEFC0346002B07D03E4B4FF08052A9
:104340001A60BFF34F8FBFF36F8FFFF751FC01234C
:104350006CE07B68002B03D1FFF74AFC002365E08B
:10436000FB6A002B06D107F110031846FEF744FD47
:104370000123FB62FFF73CFCFEF776FAFFF70AFC2D
:10438000BB6A5B6CB3F1FF3F02D1BB6A00225A6487
:10439000BB6A9B6CB3F1FF3F02D1BB6A00229A64F7
:1043A000FFF726FC07F110023B1D10461946FEF7E9
:1043B00045FD0346002B31D1B86A00F01DF90346D4
:1043C000002B25D0BB6A1B68002B08D1FFF7E2FB4E
:1043D000BB6A5B681846FEF73FFFFFF709FCBB6A44
:1043E00003F124027B6810461946FEF713FCB86AF5
:1043F00000F0B6F8FEF746FA0346002B15D10D4B38
:104400004FF080521A60BFF34F8FBFF36F8F0CE0F5
:10441000B86A00F0A5F8FEF735FA4CE7B86A00F084
:104420009FF8FEF72FFA002300E044E718463037E4
:10443000BD4680BD04ED00E080B586B000AFF860F9
:10444000B9607A6000237B61FB681B6C002B0DD187
:10445000FB681B68002B52D1FB685B681846FEF7AF
:1044600073FF7861FB6800225A6048E07B68002B8C
:104470001AD1FB689A68FB681B6C1046B9681A462B
:1044800003F0E6F8FB689A68FB681B6C1A44FB684B
:104490009A60FB689A68FB685B689A422FD3FB6856
:1044A0001A68FB689A602AE0FB68DA68FB681B6C94
:1044B0001046B9681A4603F0CBF8FB68DA68FB6867
:1044C0001B6C5B421A44FB68DA60FB68DA68FB68C5
:1044D0001B689A4207D2FB685A68FB681B6C5B42F8
:1044E0001A44FB68DA607B68022B08D1FB689B6B7F
:1044F000002B04D0FB689B6B5A1EFB689A63FB6819
:104500009B6B5A1CFB689A637B6918461837BD463B
:1045100080BD00BF80B582B000AF786039607B6835
:104520001B6C002B19D07B68DA687B681B6C1A4403
:104530007B68DA607B68DA687B685B689A4203D3E1
:104540007B681A687B68DA607B68DA687B681B6C5A
:10455000386811461A4603F07BF80837BD4680BD1F
:1045600080B582B000AF7860FFF714FB14E07B6881
:104570005B6A002B0AD07B6824331846FEF7D8FB11
:104580000346002B03D0FEF7B7FC00E008E07B6891
:104590009B6C5A1E7B689A647B689B6C002BE6DCE4
:1045A0007B684FF0FF329A64FFF722FBFFF7F2FAC5
:1045B00014E07B681B69002B0FD07B681033184612
:1045C000FEF7B6FB0346002B01D0FEF795FC7B6897
:1045D0005B6C5A1E7B685A6400E003E07B685B6C8E
:1045E000002BE6DC7B684FF0FF325A64FFF700FBDC
:1045F0000837BD4680BD00BF80B584B000AF78608D
:10460000FFF7C8FA7B689B6B002B02D10123FB608C
:1046100001E00023FB60FFF7EBFAFB681846103758
:10462000BD4680BD80B584B000AF7860FFF7B2FAB8
:104630007B689A6B7B68DB6B9A4202D10123FB603B
:1046400001E00023FB60FFF7D3FAFB681846103740
:10465000BD4680BD80B485B000AF7860396000236E
:10466000FB6014E00E4AFB6852F83330002B0BD18C
:104670000B49FB683A6841F83320094AFB68DB00C4
:1046800013447A685A6005E0FB680133FB60FB68FD
:10469000072BE7D91437BD465DF8047B704700BF90
:1046A000C417002080B584B000AF786039607B68A3
:1046B000FB60FFF76FFAFB685B6CB3F1FF3F02D161
:1046C000FB6800225A64FB689B6CB3F1FF3F02D188
:1046D000FB6800229A64FFF78BFAFB689B6B002B48
:1046E00005D1FB68243318463968FEF7E1FAF8680B
:1046F000FFF736FF1037BD4680BD00BF0000000049
:1047000080B58EB000AFF860B96087ED000BFB6834
:104710003D4A934203D0FB683C4A934201D10423B3
:1047200069E007F11403F868194601F0BDFA7B69E6
:10473000184602F091F902460B4610461946D7E991
:10474000002302F071FC0346002B01D0012352E04C
:10475000D7E900014FF000024FF0000302F05AFCCD
:104760000346002B01D0022345E007F1140318464D
:1047700097ED000B01F018FB3B6A002B01D10123E0
:1047800039E0D7E9000102F077FC0246BB689A6085
:104790001BA1D1E90001D7E9002302F0FDFA02468E
:1047A0000B461046194602F067FC0246BB68DA6009
:1047B0003A6ABB681A607A6ABB685A60F86801F0A6
:1047C00087FB7B6A9BB2013B9BB2BB850023FB85C9
:1047D0003B6A013B3B630023BB86002387F83630EE
:1047E00007F12C03F868194601F008FDF86801216B
:1047F00001F06EFD002318463837BD4680BD00BF6E
:104800000000000080842E41001000400014004091
:1048100080B582B000AF78600B46FB701346BB706A
:104820007B684A4A934207D1FA78BB78104619460A
:1048300000F06AF9034684E07B68B3F1804F07D14A
:10484000FA78BB781046194600F05AFA034678E029
:104850007B683F4A934207D1FA78BB7810461946E5
:1048600000F05AFB03466CE07B683A4A934207D15A
:10487000FA78BB781046194600F070FC034660E0F9
:104880007B68354A934207D1FA78BB7810461946BF
:1048900000F05EFD034654E07B68304A934207D146
:1048A000FA78BB781046194600F04CFE034648E003
:1048B0007B682B4A934207D1FA78BB781046194699
:1048C00000F03AFF03463CE07B68264A934207D15A
:1048D000FA78BB781046194600F0B4FF034630E082
:1048E0007B68214A934207D1FA78BB781046194673
:1048F00000F0FAFF034624E07B681C4A934207D18C
:10490000FA78BB781046194601F040F8034618E0E3
:104910007B68174A934207D1FA78BB78104619464C
:1049200001F0BEF803460CE07B68124A934207D1BF
:10493000FA78BB781046194601F004F9034600E006
:10494000042318460837BD4680BD00BF0000014063
:104950000004004000080040000C0040000401403A
:104960000040014000440140004801400018004060
:10497000001C00400020004080B58AB000AFF86005
:10498000B9603B601346FB71BB681B685A1E3B68ED
:104990009A4201D2032343E03B68FB617023BB8250
:1049A0000123FB8202233B84FB79032B36D801A22F
:1049B00052F823F0C5490008DB490008F149000816
:1049C000074A000807F11403F868194601F0A0FC33
:1049D000F868082101F08AFE21E007F11403F86865
:1049E000194601F00FFDF868082101F09BFE16E062
:1049F00007F11403F868194601F08CFDF8680821E6
:104A000001F0AEFE0BE007F11403F868194601F05F
:104A100007FEF868082101F0BFFE00E000BF002398
:104A200018462837BD4680BD80B584B000AFF86019
:104A3000B960134687ED000AFB71D7ED007A9FED50
:104A40001E7AF4EEC77AF1EE10FA08DDBB681B6837
:104A5000FA79F868B968FFF78FFF034628E0D7EDC9
:104A6000007AF5EEC07AF1EE10FA08D8FB79F86812
:104A7000B9681A460023FFF77FFF034618E0BB68BA
:104A80001B68013B07EE903AB8EE677AD7ED007AE3
:104A900067EE277AFCEEE77A17EE902A074BA3FB26
:104AA00002235B09FA79F868B968FFF765FF0346E6
:104AB00018461037BD4680BD0000C8421F85EB5127
:104AC00080B584B000AFF860B9603B601346FB71FD
:104AD000BB68DA683B689A4201D203230FE0BB68E7
:104AE0001B68013B3A6802FB03F2BB68DB68B2FB60
:104AF000F3F3FA79F868B968FFF73EFF0346184602
:104B00001037BD4680BD00BF80B586B000AF0346FC
:104B10000A46FB711346BB7102233B740023BB742E
:104B20000023FB7403237B74FB79032B00F2DC80EE
:104B300001A252F823F000BF494B0008B14B000816
:104B4000194C0008814C0008BB79002B02D0012BC6
:104B500015D029E001200121FCF788FD66480821D5
:104B60000122FEF797FD4FF48073FB6007F10C0301
:104B700061481946FEF7CAFC0023FB7517E01020B8
:104B80000121FCF773FD5D4809210122FEF782FD3A
:104B90004FF40073FB6007F10C0358481946FEF709
:104BA000B5FC0023FB7502E00623FB7500BF9EE009
:104BB000BB79002B02D0012B15D029E00120012167
:104BC000FCF754FD4C4809210122FEF763FD4FF428
:104BD0000073FB6007F10C0347481946FEF796FC8B
:104BE0000023FB7517E010200121FCF73FFD43482F
:104BF0000A210122FEF74EFD4FF48063FB6007F1AE
:104C00000C033E481946FEF781FC0023FB7502E0C9
:104C10000623FB7500BF6AE0BB79002B02D0012B95
:104C200015D029E001200121FCF720FD32480A219E
:104C30000122FEF72FFD4FF48063FB6007F10C03A8
:104C40002D481946FEF762FC0023FB7517E0102083
:104C50000121FCF70BFD29480D210122FEF71AFD69
:104C60004FF40053FB6007F10C0324481946FEF78C
:104C70004DFC0023FB7502E00623FB7500BF36E008
:104C8000BB79002B02D0012B15D029E00120012196
:104C9000FCF7ECFC18480B210122FEF7FBFC4FF45B
:104CA0000063FB6007F10C0313481946FEF72EFC66
:104CB0000023FB7517E010200121FCF7D7FC0F48FB
:104CC0000E210122FEF7E6FC4FF48043FB6007F162
:104CD0000C030A481946FEF719FC0023FB7502E095
:104CE0000623FB7500BF02E00523FB7500BFFB7DBB
:104CF00018461837BD4680BD000002400010024033
:104D000080B586B000AF03460A46FB711346BB71FF
:104D100002233B740023BB740023FB7403237B74C6
:104D2000FB79032B00F2EC8001A252F823F000BFC4
:104D3000414D0008D14D0008354E00089B4E00083B
:104D4000BB79012B17D0022B29D0002B3CD101209D
:104D50000121FCF78BFC6E4800210122FEF79AFC32
:104D60000123FB6007F10C0369481946FEF7CEFBEF
:104D70000023FB752BE001200121FCF777FC644840
:104D800005210122FEF786FC2023FB6007F10C03BE
:104D90005F481946FEF7BAFB0023FB7517E00120B8
:104DA0000121FCF763FC5A480F210122FEF772FC37
:104DB0004FF40043FB6007F10C0355481946FEF71A
:104DC000A5FB0023FB7502E00623FB7500BF9AE0FC
:104DD000BB79002B02D0012B14D027E00120012148
:104DE000FCF744FC4A4801210122FEF753FC022350
:104DF000FB6007F10C0346481946FEF787FB0023CA
:104E0000FB7516E002200121FCF730FC414803212C
:104E10000122FEF73FFC0823FB6007F10C033D482D
:104E20001946FEF773FB0023FB7502E00623FB75B2
:104E300000BF68E0BB79002B02D0012B14D028E022
:104E400001200121FCF712FC314802210122FEF76A
:104E500021FC0423FB6007F10C032D481946FEF7E3
:104E600055FB0023FB7517E002200121FCF7FEFB38
:104E700028480A210122FEF70DFC4FF48063FB60F5
:104E800007F10C0323481946FEF740FB0023FB758E
:104E900002E00623FB7500BF35E0BB79002B02D092
:104EA000012B14D028E001200121FCF7DFFB18487A
:104EB00003210122FEF7EEFB0823FB6007F10C0340
:104EC00013481946FEF722FB0023FB7517E002206A
:104ED0000121FCF7CBFB0F480B210122FEF7DAFB87
:104EE0004FF40063FB6007F10C030A481946FEF714
:104EF0000DFB0023FB7502E00623FB7500BF02E0FB
:104F00000523FB7500BFFB7D18461837BD4680BDE5
:104F1000000002400004024080B586B000AF0346A6
:104F20000A46FB711346BB7102233B740023BB741A
:104F30000023FB7403237B74FB79032B00F20081B5
:104F400001A252F823F000BF594F0008E74F0008B4
:104F500075500008DB500008BB79012B17D0022BDD
:104F600029D0002B3BD101200121FCF77FFB7848A1
:104F700006210222FEF78EFB4023FB6007F10C03A3
:104F800073481946FEF7C2FA0023FB752AE0022097
:104F90000121FCF76BFB6F4804210222FEF77AFB2C
:104FA0001023FB6007F10C036A481946FEF7AEFABE
:104FB0000023FB7516E004200121FCF757FB66482F
:104FC00006210222FEF766FB4023FB6007F10C037B
:104FD00061481946FEF79AFA0023FB7502E00623A2
:104FE000FB7500BFAFE0BB79012B17D0022B29D096
:104FF000002B3BD101200121FCF738FB544807214D
:105000000222FEF747FB8023FB6007F10C035048A8
:105010001946FEF77BFA0023FB752AE002200121E6
:10502000FCF724FB4B4805210222FEF733FB20232B
:10503000FB6007F10C0347481946FEF767FA0023A7
:10504000FB7516E004200121FCF710FB4248072104
:105050000222FEF71FFB8023FB6007F10C033E4892
:105060001946FEF753FA0023FB7502E00623FB7591
:1050700000BF68E0BB79002B02D0012B14D028E0E0
:1050800002200121FCF7F2FA324800210222FEF749
:1050900001FB0123FB6007F10C032E481946FEF7C4
:1050A00035FA0023FB7517E004200121FCF7DEFA36
:1050B000294808210222FEF7EDFA4FF48073FB60C5
:1050C00007F10C0324481946FEF720FA0023FB756C
:1050D00002E00623FB7500BF35E0BB79002B02D050
:1050E000012B14D028E002200121FCF7BFFA194857
:1050F00001210222FEF7CEFA0223FB6007F10C0326
:1051000014481946FEF702FA0023FB7517E0042045
:105110000121FCF7ABFA104809210222FEF7BAFA86
:105120004FF40073FB6007F10C030B481946FEF7C0
:10513000EDF90023FB7502E00623FB7500BF02E0DA
:105140000523FB7500BFFB7D18461837BD4680BDA3
:1051500000000240000402400008024080B586B012
:1051600000AF03460A46FB711346BB7102233B7432
:105170000023BB740023FB7403237B74FB79032B94
:1051800000F2DA8001A252F823F000BF9D5100081E
:105190000352000869520008D1520008BB79002B65
:1051A00002D0012B14D028E002200121FCF75EFA86
:1051B000654806210222FEF76DFA4023FB6007F1E5
:1051C0000C0361481946FEF7A1F90023FB7517E0AF
:1051D00008200121FCF74AFA5C480C210222FEF764
:1051E00059FA4FF48053FB6007F10C0357481946F6
:1051F000FEF78CF90023FB7502E00623FB7500BF68
:105200009DE0BB79002B02D0012B14D028E00220B6
:105210000121FCF72BFA4C4807210222FEF73AFA4B
:105220008023FB6007F10C0347481946FEF76EF92F
:105230000023FB7517E008200121FCF717FA43480B
:105240000D210222FEF726FA4FF40053FB6007F10E
:105250000C033E481946FEF759F90023FB7502E09E
:105260000623FB7500BF6AE0BB79002B02D0012B3F
:1052700015D029E002200121FCF7F8F93248082175
:105280000222FEF707FA4FF48073FB6007F10C036C
:105290002D481946FEF73AF90023FB7517E0082060
:1052A0000121FCF7E3F929480E210222FEF7F2F969
:1052B0004FF48043FB6007F10C0324481946FEF7C6
:1052C00025F90023FB7502E00623FB7500BF36E0DD
:1052D000BB79002B02D0012B15D029E0022001213F
:1052E000FCF7C4F9184809210222FEF7D3F94FF45C
:1052F0000073FB6007F10C0313481946FEF706F92B
:105300000023FB7517E008200121FCF7AFF90F48D7
:105310000F210222FEF7BEF94FF40043FB6007F1B4
:105320000C030A481946FEF7F1F80023FB7502E06A
:105330000623FB7500BF02E00523FB7500BFFB7D64
:1053400018461837BD4680BD00040240000C0240DC
:1053500080B586B000AF03460A46FB711346BB71A9
:1053600002233B740023BB740023FB7403237B7470
:10537000FB79032B00F2D88001A252F823F000BF82
:1053800091530008F75300085D540008C354000807
:10539000BB79002B02D0012B14D028E00120012181
:1053A000FCF764F9644800210222FEF773F9012337
:1053B000FB6007F10C0360481946FEF7A7F80023CD
:1053C000FB7517E080200121FCF750F95B480A21AA
:1053D0000222FEF75FF94FF48063FB6007F10C03D4
:1053E00056481946FEF792F80023FB7502E00623A3
:1053F000FB7500BF9BE0BB79002B02D0012B14D0C2
:1054000028E001200121FCF731F94B48012102225B
:10541000FEF740F90223FB6007F10C0346481946EA
:10542000FEF774F80023FB7517E080200121FCF7DC
:105430001DF942480B210222FEF72CF94FF40063BC
:10544000FB6007F10C033D481946FEF75FF80023A7
:10545000FB7502E00623FB7500BF68E0BB79002BFB
:1054600002D0012B14D028E001200121FCF7FEF826
:10547000314802210222FEF70DF90423FB6007F1F7
:105480000C032D481946FEF741F80023FB7517E081
:1054900080200121FCF7EAF828480C210222FEF7BF
:1054A000F9F84FF48053FB6007F10C0323481946C9
:1054B000FEF72CF80023FB7502E00623FB7500BF06
:1054C00035E0BB79002B02D0012B14D028E001205D
:1054D0000121FCF7CBF8184803210222FEF7DAF885
:1054E0000823FB6007F10C0313481946FEF70EF87A
:1054F0000023FB7517E04FF480700121FCF7B6F82C
:105500000F4800210222FEF7C5F80123FB6007F1D6
:105510000C030B481946FDF7F9FF0023FB7502E069
:105520000623FB7500BF02E00523FB7500BFFB7D72
:1055300018461837BD4680BD00000240001C0240DE
:105540000020024080B586B000AF03460A46FB71DA
:105550001346BB7102233B740023BB740023FB740E
:1055600003237B74FB79032B00F2DA8001A252F84B
:1055700023F000BF85550008EB5500085156000880
:10558000B9560008BB79002B02D0012B14D028E0BB
:1055900004200121FCF76AF8654806210322FEF782
:1055A00079F84023FB6007F10C0361481946FDF7C9
:1055B000ADFF0023FB7517E04FF480700121FCF76D
:1055C00055F85C4805210322FEF764F82023FB60B0
:1055D00007F10C0357481946FDF798FF0023FB75A8
:1055E00002E00623FB7500BF9DE0BB79002B02D0D3
:1055F000012B14D028E004200121FCF737F84C4897
:1056000007210322FEF746F88023FB6007F10C0315
:1056100047481946FDF77AFF0023FB7517E04FF462
:1056200080700121FCF722F8424806210322FEF790
:1056300031F84023FB6007F10C033E481946FDF7A3
:1056400065FF0023FB7502E00623FB7500BF6AE0DF
:10565000BB79002B02D0012B15D029E004200121B9
:10566000FCF704F8324808210322FEF713F84FF440
:105670008073FB6007F10C032D481946FDF746FFC8
:105680000023FB7517E04FF480700121FBF7EEFF5C
:10569000284807210322FDF7FDFF8023FB6007F167
:1056A0000C0324481946FDF731FF0023FB7502E087
:1056B0000623FB7500BF36E0BB79002B02D0012B1F
:1056C00015D029E004200121FBF7D0FF184809215B
:1056D0000322FDF7DFFF4FF40073FB6007F10C03BB
:1056E00013481946FDF712FF0023FB7517E04FF42E
:1056F00080700121FBF7BAFF0E4802210322FDF75B
:10570000C9FF0423FB6007F10C030A481946FDF7A3
:10571000FDFE0023FB7502E00623FB7500BF02E0DF
:105720000523FB7500BFFB7D18461837BD4680BDBD
:10573000000802400020024080B586B000AF03465A
:105740000A46FB711346BB7102233B740023BB74F2
:105750000023FB7403237B74FB79002B02D0012B05
:1057600032D063E0BB79002B02D0012B14D027E0AC
:1057700001200121FBF77AFF304802210322FDF7C7
:1057800089FF0423FB6007F10C032C481946FDF741
:10579000BDFE0023FB7516E010200121FBF766FF1C
:1057A000274805210322FDF775FF2023FB6007F141
:1057B0000C0323481946FDF7A9FE0023FB7502E000
:1057C0000623FB7500BF34E0BB79002B02D0012B10
:1057D00014D027E001200121FBF748FF17480321DF
:1057E0000322FDF757FF0823FB6007F10C03134862
:1057F0001946FDF78BFE0023FB7516E010200121F2
:10580000FBF734FF0E4806210322FDF743FF402338
:10581000FB6007F10C030A481946FDF777FE0023E9
:10582000FB7502E00623FB7500BF02E00523FB7554
:1058300000BFFB7D18461837BD4680BD0000024002
:105840000010024080B586B000AF03460A46FB71E7
:105850001346BB7102233B740023BB740023FB740B
:1058600003237B74FB79002B32D1BB79002B02D050
:10587000012B15D028E002200121FBF7F7FE184884
:1058800008210322FDF706FF4FF48073FB6007F148
:105890000C0313481946FDF739FE0023FB7516E08B
:1058A00020200121FBF7E2FE0E4806210322FDF72E
:1058B000F1FE4023FB6007F10C030A481946FDF78F
:1058C00025FE0023FB7502E00623FB7500BF02E006
:1058D0000523FB7500BFFB7D18461837BD4680BD0C
:1058E000000402400014024080B586B000AF0346B9
:1058F0000A46FB711346BB7102233B740023BB7441
:105900000023FB7403237B74FB79002B32D1BB791A
:10591000002B02D0012B15D028E002200121FBF73B
:10592000A5FE184809210322FDF7B4FE4FF40073C9
:10593000FB6007F10C0313481946FDF7E7FD002350
:10594000FB7516E020200121FBF790FE0E48072191
:105950000322FDF79FFE8023FB6007F10C030A483A
:105960001946FDF7D3FD0023FB7502E00623FB7506
:1059700000BF02E00523FB7500BFFB7D184618370A
:10598000BD4680BD000402400014024080B586B0D0
:1059900000AF03460A46FB711346BB7102233B74FA
:1059A0000023BB740023FB7403237B74FB79002B5F
:1059B00002D0012B33D066E0BB79002B02D0012B43
:1059C00015D028E002200121FBF750FE32480E21BD
:1059D0000922FDF75FFE4FF48043FB6007F10C03E3
:1059E0002D481946FDF792FD0023FB7516E0802037
:1059F0000121FBF73BFE294806210922FDF74AFE5B
:105A00004023FB6007F10C0324481946FDF77EFD97
:105A10000023FB7502E00623FB7500BF36E0BB796F
:105A2000002B02D0012B15D029E002200121FBF729
:105A30001DFE19480F210922FDF72CFE4FF40043EB
:105A4000FB6007F10C0314481946FDF75FFD0023C6
:105A5000FB7517E080200121FBF708FE0F480921A4
:105A60000922FDF717FE4FF40073FB6007F10C03EA
:105A70000A481946FDF74AFD0023FB7502E006239C
:105A8000FB7500BF02E00523FB7500BFFB7D1846D8
:105A90001837BD4680BD00BF00040240001C024014
:105AA00080B586B000AF03460A46FB711346BB7152
:105AB00002233B740023BB740023FB7403237B7419
:105AC000FB79002B32D1BB79002B02D0012B14D0F3
:105AD00028E001200121FBF7C9FD18480621092211
