:020000040800F2
:10000000180A0020450B0008A10B0008A10B0008EE
:10001000A10B0008A10B0008A10B000800000000C4
:10002000000000000000000000000000A10B00081C
:10003000A10B000800000000A10B0008251E00080D
:10004000A10B0008A10B0008A10B0008A10B0008E0
:10005000A10B0008A10B0008A10B0008A10B0008D0
:10006000A10B0008A10B0008A10B0008A10B0008C0
:10007000A10B0008A10B0008A10B0008A10B0008B0
:10008000A10B0008A10B0008A10B0008A10B0008A0
:10009000A10B0008A10B0008A10B0008A10B000890
:1000A000A10B0008A10B0008A10B0008A10B000880
:1000B000A10B0008A10B0008A10B0008A10B000870
:1000C000A10B0008A10B0008A10B0008A10B000860
:1000D000A10B00086D17000899170008C517000844
:1000E000A10B0008A10B0008A10B0008A10B000840
:1000F000A10B0008A10B0008A10B0008A10B000830
:10010000A10B0008A10B0008A10B0008A10B00081F
:10011000F11700081D180008A10B0008A10B00082A
:10012000A10B0008A10B0008A10B0008A10B0008FF
:10013000A10B0008A10B0008A10B0008A10B0008EF
:10014000A10B0008A10B0008A10B0008A10B0008DF
:10015000A10B0008A10B0008A10B0008491800081A
:10016000A10B0008A10B0008A10B0008A10B0008BF
:10017000A10B0008A10B0008A10B0008A10B0008AF
:10018000A10B0008A10B000880B584B000AFF86097
:10019000B960FA71BB71FB68B86819464FF000028C
:1001A000104B02F095F80346002B01D0012315E017
:1001B000FA79BB79B86811461A4602F011F903467C
:1001C000002B01D0012309E0FB68BA681A61FB68C3
:1001D000FA791A75FB68BA795A75002318461037F0
:1001E000BD4680BD00804040F0B583B000AF786070
:1001F000396038684FF0000105F058F80346002BCD
:1002000006D13868144905F06FF80346002B01D079
:1002100001231DE07B681E697D687B681C7D386852
:100220000E4904F0A5FE034618460B4904F054FF9E
:10023000034618460A4904F093FD0346184605F0A4
:100240005DF8034630462946224602F021FA002393
:1002500018460C37BD46F0BD000034430000E144B1
:1002600000001B4480B58AB000AF7860396000237D
:100270007B6200233B620023FB610023BB617B6840
:100280001B8A9BB27B627B6A23F440537B623B6890
:10029000DB887A6A13437B627B6A9AB27B681A8234
:1002A0007B689B899BB27B627B6A23F4B05323F00B
:1002B0000C037B623B689A883B681B8913439AB2A4
:1002C0003B685B8913439BB27A6A13437B627B6A08
:1002D0009AB27B689A817B689B8A9BB27B627B6ABD
:1002E00023F440737B623B689B897A6A13437B6289
:1002F0007B6A9AB27B689A8207F10803184600F07D
:1003000079FF7A68314B9A4203D07A68304B9A422F
:1003100002D17B693B6201E03B693B627B689B8960
:100320009BB29BB21BB2002B0CDA3A6A13469B00BD
:1003300013449A001A443B681B685B00B2FBF3F35A
:10034000FB610BE03A6A13469B0013449A001A447F
:100350003B681B689B00B2FBF3F3FB61FA691D4B22
:10036000A3FB02135B091B017B627B6A1B096422EE
:1003700002FB03F3FA69D31ABB617B689B899BB2CA
:100380009BB21BB2002B0DDABB69DB0003F132021A
:10039000104BA3FB02135B0903F007037A6A1343B4
:1003A0007B620CE0BB691B0103F13202094BA3FB2A
:1003B00002135B0903F00F037A6A13437B627B6AC3
:1003C0009AB27B681A812837BD4680BD0010014073
:1003D000001401401F85EB5180B483B000AF7860FA
:1003E0000B46FB70FB78002B08D07B689B899BB287
:1003F00043F400539AB27B689A8107E07B689B893B
:100400009BB223F400539AB27B689A810C37BD46A5
:100410005DF8047B704700BF80B483B000AF7860A4
:100420000B467B807B88C3F308039AB27B689A8073
:100430000C37BD465DF8047B704700BF80B487B0C1
:1004400000AF786013460A467A807B7000233B61D8
:100450000023FB600023BB6000237B617B687B6122
:100460007B88DBB25B09DBB23B617B8803F01F0357
:10047000FB60FB68012202FA03F3BB603B69012BBE
:1004800003D17B690C337B6109E03B69022B03D10B
:100490007B6910337B6102E07B6914337B617B787D
:1004A000002B06D07B697A691168BA680A431A6022
:1004B00006E07B697A691168BA68D2430A401A601B
:1004C0001C37BD465DF8047B704700BF80B485B023
:1004D00000AF78600B467B800023FB737B681B8832
:1004E0009AB27B8813409BB2002B02D00123FB738E
:1004F00001E00023FB73FB7B18461437BD465DF813
:10050000047B704780B487B000AF78600B467B8077
:100510000023FB6000237B610023BB600023FB748E
:100520007B88DBB25B09DBB2BB607B8803F01F0317
:100530007B617B69012202FA03F37B61BB68012BBB
:1005400006D17B689B899BB27A6913407B610FE07F
:10055000BB68022B06D17B681B8A9BB27A69134069
:100560007B6105E07B689B8A9BB27A6913407B6163
:100570007B881B0A9BB2FB60FB68012202FA03F333
:10058000FB607B681B889BB2FA681340FB607B6949
:10059000002B05D0FB68002B02D00123FB7401E087
:1005A0000023FB74FB7C18461C37BD465DF8047BBA
:1005B000704700BF80B582B000AF78600B46FB701B
:1005C000FB78002B03D1786800F0E6F867E0FB7851
:1005D000012B03D1786800F0EDF860E0FB78022B86
:1005E00003D1786800F0F4F859E0FB78032B03D1CD
:1005F000786800F0FBF852E0FB78042B03D17868B0
:1006000000F002F94BE0FB78052B03D1786800F08D
:1006100023F944E0FB78062B03D1786800F044F915
:100620003DE0FB78072B03D1786800F067F936E0EE
:10063000FB78082B03D1786800F08AF92FE0FB786B
:10064000092B03D1786800F0ADF928E0FB780A2B7C
:1006500003D1786800F0CEF921E0FB780B2B03D1B1
:10066000786800F0D5F91AE0FB780C2B03D1786894
:1006700000F0DCF913E0FB780D2B03D1786800F073
:10068000E3F90CE0FB780E2B03D1786800F0EAF96F
:1006900005E0FB780F2B02D1786800F00BFA786840
:1006A00000F004F80837BD4680BD00BF80B58CB0AF
:1006B00000AF786000237B770023BB6200237B625E
:1006C00000233B62012387F82C3000233B777A68B4
:1006D0001E4B9A4207D14FF48070012100F070FE4A
:1006E0000023BB6116E07A68194B9A4207D14FF498
:1006F0000070012100F064FE0023BB610AE07A680B
:10070000144B9A4206D14FF48060012100F058FE4C
:100710000023BB6100233B610023BB604FF48033A7
:10072000FB604FF440737B6107F10803184601F04A
:10073000C1F907F118037868194601F067F978687C
:10074000012101F0DFF93037BD4680BD00200140B6
:10075000002101400022014080B582B000AF7860E6
:100760000B46FB70FB78786819460122012301F0E3
:10077000E5F9786801F0A6FA00BF7868022101F077
:10078000BFFA0346002BF8D0786801F0ABFA0346B5
:1007900018460837BD4680BD80B582B000AF78608E
:1007A00001200349012200F0ADF90837BD4680BDA4
:1007B0000000024080B582B000AF7860012003499C
:1007C000022200F09FF90837BD4680BD00000240BC
:1007D00080B582B000AF786001200349042200F0A8
:1007E00091F90837BD4680BD0000024080B582B057
:1007F00000AF786001200349082200F083F9083730
:10080000BD4680BD0000024080B582B000AF786078
:100810007A680C4B9A4203D07A680B4B9A4205D106
:1008200001200A49102200F06DF908E07A68084BAF
:100830009A4204D120200749402200F063F908378A
:10084000BD4680BD00200140002101400000024063
:10085000002201400014024080B582B000AF7860F1
:100860007A680C4B9A4203D07A680B4B9A4205D1B6
:1008700001200A49202200F045F908E07A68084B77
:100880009A4204D120200749802200F03BF9083722
:10089000BD4680BD00200140002101400000024013
:1008A000002201400014024080B582B000AF7860A1
:1008B0007A680D4B9A4203D07A680C4B9A4205D164
:1008C00001200B49402200F01DF909E07A68094B2C
:1008D0009A4205D1202008494FF4807200F012F9A5
:1008E0000837BD4680BD00BF002001400021014007
:1008F00000000240002201400014024080B582B096
:1009000000AF78607A680D4B9A4203D07A680C4B3E
:100910009A4205D101200B49802200F0F3F809E04A
:100920007A68094B9A4205D1202008494FF4007299
:1009300000F0E8F80837BD4680BD00BF0020014048
:10094000002101400000024000220140001402404A
:1009500080B582B000AF78607A680D4B9A4203D0C0
:100960007A680C4B9A4205D102200B49012200F013
:10097000C9F809E07A68094B9A4205D12020084954
:100980004FF4806200F0BEF80837BD4680BD00BF5E
:1009900000200140002101400004024000220140EB
:1009A0000014024080B582B000AF78607A680C4BCA
:1009B0009A4203D07A680B4B9A4205D102200A4929
:1009C000022200F09FF808E07A68084B9A4204D1AE
:1009D00020200749082200F095F80837BD4680BD61
:1009E000002001400021014000040240002201409B
:1009F0000014024080B582B000AF78600420034943
:100A0000012200F07FF80837BD4680BD0008024093
:100A100080B582B000AF786004200349022200F064
:100A200071F80837BD4680BD0008024080B582B02D
:100A300000AF786004200349042200F063F808370F
:100A4000BD4680BD0008024080B582B000AF78602E
:100A500004200349082200F055F80837BD4680BD40
:100A60000008024080B582B000AF78607A680C4B15
:100A70009A4203D07A680B4B9A4205D104200A4966
:100A8000082200F03FF808E07A68084B9A4204D147
:100A900020200749102200F035F80837BD4680BDF8
:100AA00000200140002101400008024000220140D6
:100AB0000014024080B582B000AF78607A680C4BB9
:100AC0009A4203D07A680B4B9A4205D104200A4916
:100AD000202200F017F808E07A68084B9A4204D107
:100AE00020200749202200F00DF80837BD4680BDC0
:100AF0000020014000210140000802400022014086
:100B00000014024080B584B000AF3960134602463D
:100B1000FA80BB80FB881846012100F015FCBB88D9
:100B2000BB6003233B730023BB730023FB730323CE
:100B30007B7307F108033868194601F019FA10377A
:100B4000BD4680BD80B582B000AF104B7B60104BBE
:100B50003B6007E03B681A1D3A607A68111D7960B6
:100B600012681A603A680B4B9A42F3D30A480B4951
:100B70004FF000028842B8BF40F8042BFFF6FAAFEE
:100B800000F036FA0837BD4680BD00BF705400083B
:100B9000000000202800002028000020140200206F
:100BA00080B400AFFEE700BF80B582B000AF03465F
:100BB0003960FB71FB79042B00F2FF8001A252F82F
:100BC00023F000BFD90B00083B0C0008FF0C000805
:100BD0009D0C0008610D00087E487F4900224FF0FF
:100BE000000301F009FD386804F06EF90346794806
:100BF0007949012201F000FD7648774902224FF041
:100C0000000301F0F9FC386804F05EF9034671480E
:100C10007149032201F0F0FC7048802101F050FA84
:100C20006F48802101F04CFA6E48802101F056FA9D
:100C30006B48402101F052FAC9E0386804F044F9E9
:100C4000034664486449002201F0D6FC61486249C9
:100C500001224FF0000301F0CFFC386804F034F9B2
:100C600003465C485C49022201F0C6FC59485A49D7
:100C700003224FF0000301F0BFFC5A48802101F02D
:100C80001FFA5748402101F01BFA5448802101F017
:100C900025FA5348802101F021FA98E0386804F0E1
:100CA00013F903464B484C49002201F0A5FC494882
:100CB000494901224FF0000301F09EFC4548464996
:100CC00002224FF0000301F097FC386804F0FCF8B2
:100CD000034640484049032201F08EFC41488021F0
:100CE00001F0EEF93E48802101F0EAF93B4880210D
:100CF00001F0F4F93A48402101F0F0F967E0354895
:100D0000354900224FF0000301F076FC386804F00A
:100D1000DBF803462F483049012201F06DFC3868AA
:100D200004F0D2F803462B482B49022201F064FC60
:100D30002848294903224FF0000301F05DFC2748B1
:100D4000802101F0BDF92648402101F0B9F925487C
:100D5000802101F0C3F92248802101F0BFF936E07B
:100D60001C481D4900224FF0000301F045FC1948C2
:100D7000194901224FF0000301F03EFC15481649C5
:100D800002224FF0000301F037FC124812490322FF
:100D90004FF0000301F030FC1048802101F09EF973
:100DA0001048802101F09AF90D48402101F096F990
:100DB0000B48802101F092F909E00848302101F048
:100DC0008DF907484FF4C04101F088F900BF08379A
:100DD000BD4680BD00040040D40000200004024055
:100DE00000080240000C024080B500AF10481149D5
:100DF0000DA3D3E9002301F06BFA0D480021012275
:100E000001F0EEFA0A480121012201F0E9FA08484E
:100E10000221012201F0E4FA05480321012201F038
:100E2000DFFA80BDAFF30080000000000088D340EF
:100E300000040040D400002080B582B000AF012043
:100E4000012100F081FA01233B6000233B71002364
:100E5000BB710223FB7102237B713B461F4819467D
:100E600001F086F80220012100F06EFA80233B6039
:100E700001233B710023BB710123FB7103237B71B1
:100E80003B461748194601F073F80420012100F091
:100E90005BFAC0233B6001233B710023BB7101233C
:100EA000FB7103237B713B460E48194601F060F845
:100EB0000820012100F048FA80233B6001233B71A8
:100EC0000023BB710123FB7103237B713B46064862
:100ED000194601F04DF80837BD4680BD00000240BC
:100EE0000004024000080240000C024080B500AF40
:100EF0002848294900F024FC46E0264800F0FAFC86
:100F000003461A46254B1A70244B1B782D2B1BD0F9
:100F1000722B31D02B2B37D1214B1B685F2B04DC7C
:100F20001F4B1B685A1D1E4B1A601D4B1B68184631
:100F30001C4900F0C3FF17481A4900F001FC15488E
:100F4000194900F0FDFB1FE0154B1B68042B04DD65
:100F5000134B1B685A1F124B1A60114B1B68184623
:100F6000104900F0ABFF0B480E4900F0E9FB0948BF
:100F70000D4900F0E5FB07E00C4B6E221A600548B6
:100F80000B4900F0DDFB00BF084B1B686E2BB4D192
:100F900080BD00BF004400403C530008A800002072
:100FA000A4000020AC0000208C5300083400002076
:100FB0009453000880B500AF0B4B1B68632B11DC0A
:100FC0000A48012101F062F80346002B02D0FFF726
:100FD0008DFF07E00A2000F00DFF034B1B685A1C31
:100FE000014B1A6080BD00BF3400002000000240A9
:100FF00080B500AF574B1A68574B1A6002F08CFC53
:1010000001F0C0F8554800214FF4E13200F030FA09
:10101000FFF7EAFEFFF710FF00F028FFFFF7CAFF17
:101020004E484F4900F08CFB00E000BF02F0A2FCEC
:1010300002464C4B1B68002B14BF00230123DBB27C
:101040001340002B08D004200021FFF7ADFD02F073
:10105000A5FB444B01221A60404800F04BFC0346BC
:101060001A46414B1A70404B1B78002B70D03E4BF8
:101070001B78623B112BD8D801A252F823F000BF95
:10108000E51000082B1000082B1000082B1000089A
:10109000C91000082B1000082B1000082B100008A6
:1010A0002B1000082B1000081D1100082B10000841
:1010B0002B1000082B1000082B1000082B10000824
:1010C0000111000839110008234B1B680020194644
:1010D000FFF76AFD2148254900F032FB214B002231
:1010E0001A6035E01C4B1B6801201946FFF75CFDB8
:1010F0001A481F4900F024FB1A4B00221A6027E00F
:10110000154B1B6803201946FFF74EFD134819497C
:1011100000F016FB134B00221A6019E00E4B1B68FF
:1011200002201946FFF740FD0C48134900F008FB68
:101130000C4B00221A600BE004200021FFF734FD65
:1011400006480E4900F0FCFA064B00221A6000BF68
:101150006BE700BF00000020A40000200044004016
:10116000A453000838000020A8000020F85300080D
:10117000085400081C5400082C5400083C54000873
:1011800080B483B000AF0346FB71054B00221A7098
:10119000034BFA791A700C37BD465DF8047B704733
:1011A0000238024080B582B000AF00233B600023CC
:1011B000FB710023BB71312000F020F90346BB71A5
:1011C0003B6801333B603B68B3F5A06F02D0BB794D
:1011D000002BF0D0312000F011F90346002B02D093
:1011E0000123FB7101E00023FB71FB7918460837EE
:1011F000BD4680BD80B489B000AF78600023BB617C
:1012000000237B610023FB6102233B610023FB6021
:101210000223BB60484B9B6803F00C03BB61BB69B6
:10122000042B07D0082B09D0002B3FD17B68434A01
:101230001A603FE07B68424A1A603BE03E4B5B68C5
:1012400003F480039B0DFB603B4B5B6803F03F03A3
:10125000BB60FB68002B0DD0394ABB68B2FBF3F2D0
:10126000354B596847F6C0730B409B0903FB02F3EB
:10127000FB610CE0314ABB68B2FBF3F22E4B5968BC
:1012800047F6C0730B409B0903FB02F3FB612A4B3B
:101290005B6803F440331B0C01335B003B61FA696C
:1012A0003B69B2FBF3F27B681A6003E07B68234A78
:1012B0001A6000BF204B9B6803F0F003BB61BB6961
:1012C0001B09BB611F4ABB6913441B78DBB27B61FE
:1012D0007B681A687B69DA407B685A60164B9B68AA
:1012E00003F4E053BB61BB699B0ABB61154ABB6950
:1012F00013441B78DBB27B617B685A687B69DA40F8
:101300007B689A600C4B9B6803F46043BB61BB69CC
:101310005B0BBB610B4ABB6913441B78DBB27B617F
:101320007B685A687B69DA407B68DA602437BD469F
:101330005DF8047B704700BF003802400024F400D1
:1013400000127A000400002080B483B000AF7860FF
:101350000B46FB70FB78002B06D0094B084A116B3B
:101360007A680A431A6306E0054B054A116B7A68EE
:10137000D2430A401A630C37BD465DF8047B7047C0
:101380000038024080B483B000AF78600B46FB7039
:10139000FB78002B06D0094B084A116C7A680A4387
:1013A0001A6406E0054B054A116C7A68D2430A407C
:1013B0001A640C37BD465DF8047B70470038024064
:1013C00080B483B000AF78600B46FB70FB78002BD5
:1013D00006D0094B084A516C7A680A435A6406E001
:1013E000054B054A516C7A68D2430A405A640C375F
:1013F000BD465DF8047B70470038024080B487B07A
:1014000000AF0346FB710023FB6000237B610023D8
:10141000FB74FB795B09DBB2FB60FB68012B03D13A
:10142000124B1B687B6109E0FB68022B03D10F4B59
:101430001B6F7B6102E00D4B5B6F7B61FB7903F0FF
:101440001F03FB60FB687A6922FA03F303F00103D0
:10145000002B02D00123FB7401E00023FB74FB7C12
:1014600018461C37BD465DF8047B704700380240C3
:1014700080B58AB000AFF8600B467A60FB727B687B
:10148000BB61FA682D4B9A420FD1FB7A184600F0E7
:101490005BF825233B750023BB840C237B8400234E
:1014A0003B840023FB830023BB83FA68244B9A42CE
:1014B0000FD1FB7A184600F093F826233B750023E2
:1014C000BB840C237B8400233B840023FB83002309
:1014D000BB83FA681B4B9A420FD1FB7A184600F087
:1014E000CBF847233B750023BB840C237B8400236C
:1014F0003B840023FB830023BB8307F11803F868B8
:101500001946FEF7AFFEF8680121FEF765FFF8689F
:1015100040F225510122FEF791FF0123FB750023C4
:101520007B75F86800F036FA0346BB7507F11403C3
:10153000184602F09BFA2837BD4680BD00100140D6
:10154000004400400014014080B584B000AF034661
:10155000FB7110200121FFF733FF02233B730023AF
:10156000BB730123FB7303237B73FB79002B17D120
:1015700001200121FFF7E8FE17480921072200F0AA
:10158000BBFD15480A21072200F0B6FD4FF4C063E9
:10159000BB6007F108031048194600F0E9FC18E0A9
:1015A000FB79012B15D102200121FFF7CDFE0B485D
:1015B0000621072200F0A0FD08480721072200F0BD
:1015C0009BFDC023BB6007F108030448194600F0E7
:1015D000CFFC1037BD4680BD000002400004024031
:1015E00080B584B000AF0346FB714FF40030012199
:1015F000FFF7C8FE02233B730023BB730123FB7379
:1016000003237B73FB79002B16D101200121FFF707
:101610009BFE17480221072200F06EFD14480321AB
:10162000072200F069FD0C23BB6007F10803104896
:10163000194600F09DFC18E0FB79012B15D108201C
:101640000121FFF781FE0B480521072200F054FD20
:1016500008480621072200F04FFD6023BB6007F118
:1016600008030448194600F083FC1037BD4680BDCE
:1016700000000240000C024080B584B000AF034679
:10168000FB7120200121FFF79BFE02233B73002307
:10169000BB730123FB7303237B73FB79002B16D1F0
:1016A00004200121FFF750FE17480621082200F010
:1016B00023FD15480721082200F01EFDC023BB6052
:1016C00007F108031048194600F052FC19E0FB79B5
:1016D000012B16D140200121FFF736FE0B480E21C9
:1016E000082200F009FD09480921082200F004FD44
:1016F0004FF48443BB6007F108030448194600F027
:1017000037FC1037BD4680BD00080240001802407B
:1017100080B582B000AF78600B46FB7000BF786880
:101720008021FEF7D3FE0346002BF8D0FB78DBB216
:1017300078681946FEF770FE0837BD4680BD00BFC9
:1017400080B582B000AF7860396007E03B685A1C12
:101750003A601B7878681946FFF7DAFF3B681B7818
:10176000002BF3D10837BD4680BD00BF80B500AF68
:10177000084840F22551FEF7C5FE0346002B07D06E
:10178000044B9B889BB2DBB20020194600F072F834
:1017900080BD00BF0010014080B500AF084840F296
:1017A0002551FEF7AFFE0346002B07D0044B9B8864
:1017B0009BB2DBB20120194600F05CF880BD00BF8F
:1017C0000044004080B500AF084840F22551FEF7C4
:1017D00099FE0346002B07D0044B9B889BB2DBB2DB
:1017E0000220194600F046F880BD00BF00480040C6
:1017F00080B500AF084840F22551FEF783FE03464E
:10180000002B07D0044B9B889BB2DBB20320194608
:1018100000F030F880BD00BF004C004080B500AF44
:10182000084840F22551FEF76DFE0346002B07D015
:10183000044B9B889BB2DBB20420194600F01AF8D7
:1018400080BD00BF0050004080B500AF084840F2A6
:101850002551FEF757FE0346002B07D0044B9B880B
:101860009BB2DBB20520194600F004F880BD00BF32
:101870000014014080B483B000AF02460B46FA71F9
:10188000BB71FA79184B33F812301F2B27D8FA792D
:10189000164B33F812301F2B04D9FA79134B002161
:1018A00023F81210F879FA79104B33F81230BA791C
:1018B0000F49400103440B441A70FB790B4A32F87C
:1018C0001320013291B2094A22F81310FB79064A1B
:1018D00032F81320013291B2034A22F813100C3768
:1018E000BD465DF8047B70475C0000203C00002092
:1018F000E400002080B584B000AF7860786800F024
:1019000049F80346BB730023FB73BA7B1E4B33F8C5
:101910001230002B32D0BA7B1C4B33F812301F2B05
:1019200004D9BA7B194B002123F81210B97BBA7B7A
:10193000164B33F81230164A49010B4413441B78F6
:10194000FB73B97BBA7B114B33F81230104A490153
:101950000B44134400221A70BB7B0C4A32F813204C
:10196000013291B2094A22F81310BB7B064A32F8C1
:101970001320013A91B2044A22F81310FB7B184657
:101980001037BD4680BD00BF5C0000204C00002029
:10199000E400002080B483B000AF78607A68154B13
:1019A0009A4201D100231EE07A68134B9A4201D17A
:1019B000012318E07A68114B9A4201D1022312E008
:1019C0007A680F4B9A4201D103230CE07A680D4BE1
:1019D0009A4201D1042306E07A680B4B9A4201D166
:1019E000052300E0002318460C37BD465DF8047B54
:1019F000704700BF00100140004400400048004014
:101A0000004C0040005000400014014080B485B0FC
:101A100000AF786039600023FB600023FB727B68B5
:101A20005B68FB60FB6823F0407323F48073FB600A
:101A30003B681B791A023B681B681343FA6813431F
:101A4000FB607B68FA685A607B689B68FB60FA6899
:101A5000174B1340FB603B681A693B68DB681A430D
:101A60003B689B681A433B685B795B001343FA68E9
:101A70001343FB607B68FA689A607B68DB6AFB60F3
:101A8000FB6823F47003FB603B681B7D013BDAB20B
:101A9000FB7A1343FB72FB7A1B05FA681343FB6066
:101AA0007B68FA68DA621437BD465DF8047B7047DC
:101AB000FDF7FFC080B485B000AF78600023FB6005
:101AC0000E4B5B68FB60FA680D4B1340FB607B6854
:101AD0001A687B685B681A437B689B681A437B685B
:101AE000DB681343FA681343FB60044BFA685A60DF
:101AF0001437BD465DF8047B704700BF00230140EA
:101B0000E030FCFF80B483B000AF78600B46FB7020
:101B1000FB78002B06D07B689B6843F001027B6852
:101B20009A6005E07B689B6823F001027B689A60FD
:101B30000C37BD465DF8047B704700BF80B485B0AC
:101B400000AF7860F970BA707B700023FB600023EF
:101B5000BB60FB78092B23D97B68DB68FB60FB78D3
:101B6000A3F10A0213465B001344072202FA03F3AF
:101B7000BB60BB68DB43FA681340FB607978FB7895
:101B8000A3F10A0213465B00134401FA03F3BB609E
:101B9000FA68BB681343FB607B68FA68DA601EE092
:101BA0007B681B69FB60FA7813465B0013440722CD
:101BB00002FA03F3BB60BB68DB43FA681340FB60C7
:101BC0007978FA7813465B00134401FA03F3BB609B
:101BD000FA68BB681343FB607B68FA681A61BB78DC
:101BE000062B21D87B685B6BFB60BB785A1E1346C3
:101BF0009B0013441F2202FA03F3BB60BB68DB4364
:101C0000FA681340FB60F978BB785A1E13469B00B4
:101C1000134401FA03F3BB60FA68BB681343FB602B
:101C20007B68FA685A6347E0BB780C2B21D87B6845
:101C30001B6BFB60BB78DA1F13469B0013441F220B
:101C400002FA03F3BB60BB68DB43FA681340FB6036
:101C5000F978BB78DA1F13469B00134401FA03F3AB
:101C6000BB60FA68BB681343FB607B68FA681A6361
:101C700022E07B68DB6AFB60BB78A3F10D021346B0
:101C80009B0013441F2202FA03F3BB60BB68DB43D3
:101C9000FA681340FB60F978BB78A3F10D02134694
:101CA0009B00134401FA03F3BB60FA68BB6813435B
:101CB000FB607B68FA68DA621437BD465DF8047B26
:101CC000704700BF80B483B000AF78607B689B68CA
:101CD00043F080427B689A600C37BD465DF8047B18
:101CE000704700BF80B483B000AF78607B68DB6C66
:101CF0009BB218460C37BD465DF8047B704700BFA9
:101D000080B485B000AF78600B46FB700023FB7396
:101D10007B681A68FB781340002B02D00123FB7309
:101D200001E00023FB73FB7B18461437BD465DF8CA
:101D3000047B704780B483B000AF03463960FB7109
:101D400097F90730002B0BDA0D49FB7903F00F03ED
:101D5000043B3A68D2B21201D2B20B441A7609E0BF
:101D6000084997F907303A68D2B21201D2B20B444F
:101D700083F800230C37BD465DF8047B704700BF35
:101D800000ED00E000E100E080B582B000AF7860D7
:101D90007B68B3F1807F01D3012311E00A4B7A689D
:101DA00022F07F42013A5A604FF0FF300F21FFF7D7
:101DB000C1FF054B00229A60034B07221A600023E3
:101DC00018460837BD4680BD10E000E080B483B0FF
:101DD00000AF78607A68064B1A6000BF044B1B683E
:101DE000002BFBD10C37BD465DF8047B704700BF6C
:101DF0006C00002080B483B000AF78607B684FF443
:101E00007A7202FB03F2064B1A6000BF044B1B6898
:101E1000002BFBD10C37BD465DF8047B704700BF3B
:101E20006C00002080B400AF0D4B1B685A1C0C4B9B
:101E30001A600C4B1B68002B04D00A4B1B685A1EFF
:101E4000084B1A60084B1B68002B04D0064B1B681C
:101E50005A1E054B1A60BD465DF8047B704700BFF3
:101E600070000020740000206C00002080B500AFDE
:101E70000F4B1B78002B00D018E00120FFF780F9F2
:101E800000BFFFF78FF90346002BFAD0094B1A6801
:101E9000094BA3FB02139B0C1846FFF775FF034683
:101EA000002B00D0FEE7024B01221A7080BD00BF5C
:101EB000780000201400002083DE1B4380B489B02A
:101EC00000AF78603960284A07F10C0307CA03C3E2
:101ED0001A800233120C1A703B68FB617B68002B7E
:101EE00007DAFB695A1CFA612D221A707B685B4283
:101EF0007B607B68BB61FB690133FB61BB691B4A8B
:101F000082FB03129210DB17D31ABB61BB69002B53
:101F1000F1D1FB6900221A70FB69013BFB61796812
:101F2000124B83FB01239A10CB17D21A13469B0046
:101F300013445B00CA1A07F12003134413F8142C4E
:101F4000FB691A707B68094A82FB03129210DB1747
:101F5000D31A7B607B68002BDED13B6818462437A0
:101F6000BD465DF8047B704750540008676666669E
:101F700080B487B000AF7860396000237B610023B4
:101F80003B610023FB6000237B6176E07B690122DB
:101F900002FA03F33B613B681A683B691340FB603C
:101FA000FA683B699A4265D17B681A687B695B0075
:101FB000032101FA03F3DB431A407B681A607B6854
:101FC0001A683B681B7919467B695B0001FA03F3C9
:101FD0001A437B681A603B681B79012B03D03B686E
:101FE0001B79022B2ED17B689A687B695B000321E9
:101FF00001FA03F3DB431A407B689A607B689A68B6
:102000003B685B7919467B695B0001FA03F31A436D
:102010007B689A607B685A687B699BB2012101FAF0
:1020200003F3DB431A407B685A607B685A683B685D
:102030009B7919467B699BB201FA03F39BB21A4361
:102040007B685A607B68DA687B699BB25B0003211E
:1020500001FA03F3DB431A407B68DA607B68DA68D5
:102060003B68DB7919467B695B0001FA03F31A438D
:102070007B68DA607B6901337B617B690F2B85D9D3
:102080001C37BD465DF8047B704700BF80B485B047
:1020900000AF78600B467B800023FB737B681A6976
:1020A0007B881340002B02D00123FB7301E0002347
:1020B000FB73FB7B18461437BD465DF8047B704705
:1020C00080B483B000AF78600B467B807B687A88F1
:1020D0001A830C37BD465DF8047B704780B483B02B
:1020E00000AF78600B467B807B687A885A830C3718
:1020F000BD465DF8047B704780B485B000AF786062
:1021000013460A467A807B700023FB600023BB6085
:102110007A787B8803F007039B0002FA03F3FB60E5
:102120007B88DB089BB21A467B88DB089BB219468A
:102130007B68083153F821107B8803F007039B006C
:102140000F2000FA03F3DB4319407B68083243F8A1
:1021500022107B88DB089BB21A467B68083253F852
:102160002220FB681343BB607B88DB089BB21A46C6
:102170007B680832B96843F822101437BD465DF811
:10218000047B704780B500AF114B114A126842F0D2
:1021900001021A600E4B00229A600D4A0C4B1B681C
:1021A00023F0847323F480331360094B094A5A6087
:1021B000074B074A126822F480221A60044B00225F
:1021C000DA6000F00BF8044B4FF000629A6080BDBB
:1021D000003802401030002400ED00E080B483B0ED
:1021E00000AF00237B6000233B60354B344A12680C
:1021F00042F480321A60324B1B6803F400333B60B8
:102200007B6801337B603B68002B03D17B68B3F5AF
:10221000A06FF0D12A4B1B6803F40033002B02D0CF
:1022200001233B6001E000233B603B68012B42D16E
:10223000234B234A126C42F080521A64214B214AEC
:10224000126842F480421A601D4B1D4A92689A60DF
:102250001B4B1B4A926842F400429A60184B184A82
:10226000926842F4A0529A60154B174A5A60144B78
:10227000134A126842F080721A6000BF104B1B684C
:1022800003F00073002BF9D0104B40F205621A6086
:102290000B4B0B4A926822F003029A60084B084AE3
:1022A000926842F002029A6000BF054B9B6803F0FF
:1022B0000C03082BF9D10C37BD465DF8047B704741
:1022C000003802400070004008544107003C0240C2
:1022D00080B58EB000AFF860B960C7E90023FA6836
:1022E0003D4B9A4203D0FA683C4B9A4201D10423F9
:1022F00069E007F11403F868194601F015FC7B69E1
:10230000184602F0F7F902460B4610461946D7E97F
:10231000002302F0D7FC0346002B01D0012352E03A
:10232000D7E900014FF000024FF0000302F0C0FCBB
:102330000346002B01D0022345E007F114031846A1
:10234000D7E9002301F070FC3B6A002B01D1012387
:1023500039E0D7E9000102F0DDFC0246BB689A6073
:102360001BA1D1E90001D7E9002302F063FB02467B
:102370000B461046194602F0CDFC0246BB68DA60F7
:102380003A6ABB681A607A6ABB685A60F86801F0FA
:10239000DFFC7B6A9BB2013B9BB2BB850023FB85C4
:1023A0003B6A013B3B630023BB86002387F8363042
:1023B00007F12C03F868194601F06EFDF868012159
:1023C00001F0D4FD002318463837BD4680BD00BF5C
:1023D0000000000080842E410010004000140040E6
:1023E00080B582B000AF786013460A46FA70BB70C1
:1023F0007A684A4B9A4207D1FA78BB781046194658
:1024000000F06AF9034684E07B68B3F1804F07D19E
:10241000FA78BB781046194600F058FA034678E07F
:102420007A683F4B9A4207D1FA78BB781046194632
:1024300000F056FB03466CE07A683A4B9A4207D1AB
:10244000FA78BB781046194600F06AFC034660E053
:102450007A68354B9A4207D1FA78BB78104619460C
:1024600000F056FD034654E07A68304B9A4207D19B
:10247000FA78BB781046194600F042FE034648E061
:102480007A682B4B9A4207D1FA78BB7810461946E6
:1024900000F02EFF03463CE07A68264B9A4207D1B3
:1024A000FA78BB781046194600F0A8FF034630E0E2
:1024B0007A68214B9A4207D1FA78BB7810461946C0
:1024C00000F0EEFF034624E07A681C4B9A4207D1E5
:1024D000FA78BB781046194601F034F8034618E044
:1024E0007A68174B9A4207D1FA78BB78104619469A
:1024F00001F0B0F803460CE07A68124B9A4207D11B
:10250000FA78BB781046194601F0F6F8034600E069
:10251000042318460837BD4680BD00BF00000140B7
:102520000004004000080040000C0040000401408E
:1025300000400140004401400048014000180040B4
:10254000001C00400020004080B58AB000AFF86059
:10255000B9603B601346FB71BB681B685A1E3B6841
:102560009A4201D2032343E03B68FB617023BB82A4
:102570000123FB8202233B84FB79032B36D801A283
:1025800052F823F095250008AB250008C125000866
:10259000D725000807F11403F868194601F006FD75
:1025A000F868082101F0F0FE21E007F11403F86853
:1025B000194601F075FDF868082101F001FF16E0E9
:1025C00007F11403F868194601F0F2FDF8680821D4
:1025D00001F014FF0BE007F11403F868194601F04D
:1025E0006DFEF868082101F025FF00E000BF002320
:1025F00018462837BD4680BD80B584B000AFF8606E
:10260000B9603B601346FB7138681F4902F06CFEED
:102610000346002B08D0BB681B68FA79F868B968D4
:10262000FFF792FF03462AE038684FF0000102F0FE
:1026300047FE0346002B08D0FB79F868B9681A46B4
:102640000023FFF781FF034619E0BB681B68013BCD
:10265000184602F035FC03461846396802F088FC3B
:102660000346184602F04AFE0246084BA3FB02133B
:102670005B09FA79F868B968FFF766FF0346184600
:102680001037BD4680BD00BF0000C8421F85EB511A
:1026900080B584B000AFF860B9603B601346FB7151
:1026A000BB68DA683B689A4201D203230FE0BB683B
:1026B0001B68013B3A6802FB03F2BB68DB68B2FBB4
:1026C000F3F3FA79F868B968FFF73EFF0346184656
:1026D0001037BD4680BD00BF80B586B000AF024652
:1026E0000B46FA71BB7102233B740023BB740023B9
:1026F000FB7403237B74FB79032B00F2DB8001A2C4
:1027000052F823F0152700087D270008E527000868
:102710004D280008BB79002B02D0012B15D029E0F1
:1027200001200121FEF710FE664808210122FFF773
:10273000E3FC4FF48073FB6007F10C03614819461A
:10274000FFF716FC0023FB7517E010200121FEF7B0
:10275000FBFD5D4809210122FFF7CEFC4FF4007319
:10276000FB6007F10C0358481946FFF701FC0023F2
:10277000FB7502E00623FB7500BF9EE0BB79002BD2
:1027800002D0012B15D029E001200121FEF7DCFD4C
:102790004C4809210122FFF7AFFC4FF40073FB60A6
:1027A00007F10C0347481946FFF7E2FB0023FB75CE
:1027B00017E010200121FEF7C7FD43480A2101223E
:1027C000FFF79AFC4FF48063FB6007F10C033E486F
:1027D0001946FFF7CDFB0023FB7502E00623FB75CE
:1027E00000BF6AE0BB79002B02D0012B15D029E095
:1027F00001200121FEF7A8FD32480A210122FFF73E
:102800007BFC4FF48063FB6007F10C032D481946F5
:10281000FFF7AEFB0023FB7517E010200121FEF748
:1028200093FD29480D210122FFF766FC4FF4005368
:10283000FB6007F10C0324481946FFF799FB0023BE
:10284000FB7502E00623FB7500BF36E0BB79002B69
:1028500002D0012B15D029E001200121FEF774FDE3
:1028600018480B210122FFF747FC4FF40063FB607F
:1028700007F10C0313481946FFF77AFB0023FB7599
:1028800017E010200121FEF75FFD0F480E21012205
:10289000FFF732FC4FF48043FB6007F10C030A485A
:1028A0001946FFF765FB0023FB7502E00623FB7565
:1028B00000BF02E00523FB7500BFFB7D18461837FB
:1028C000BD4680BD000002400010024080B586B0C9
:1028D00000AF02460B46FA71BB7102233B74002322
:1028E000BB740023FB7403237B74FB79032B00F27E
:1028F000EB8001A252F823F0092900089929000869
:10290000FD290008632A0008BB79012B17D0022B90
:1029100029D0002B3CD101200121FEF715FD6E4886
:1029200000210122FFF7E8FB0123FB6007F10C0304
:1029300069481946FFF71CFB0023FB752BE00120BB
:102940000121FEF701FD644805210122FFF7D4FBB8
:102950002023FB6007F10C035F481946FFF708FBD3
:102960000023FB7517E001200121FEF7EDFC5A481A
:102970000F210122FFF7C0FB4FF40043FB6007F17A
:102980000C0355481946FFF7F3FA0023FB7502E0E4
:102990000623FB7500BF9AE0BB79002B02D0012B08
:1029A00014D027E001200121FEF7CEFC4A48012186
:1029B0000122FFF7A1FB0223FB6007F10C0346484D
:1029C0001946FFF7D5FA0023FB7516E00220012116
:1029D000FEF7BAFC414803210122FFF78DFB0823D3
:1029E000FB6007F10C033D481946FFF7C1FA0023CD
:1029F000FB7502E00623FB7500BF68E0BB79002B86
:102A000002D0012B14D028E001200121FEF79CFC0C
:102A1000314802210122FFF76FFB0423FB6007F11D
:102A20000C032D481946FFF7A3FA0023FB7517E0A6
:102A300002200121FEF788FC28480A210122FFF725
:102A40005BFB4FF48063FB6007F10C0323481946DE
:102A5000FFF78EFA0023FB7502E00623FB7500BF2B
:102A600035E0BB79002B02D0012B14D028E00120E7
:102A70000121FEF769FC184803210122FFF73CFB06
:102A80000823FB6007F10C0313481946FFF770FA9F
:102A90000023FB7517E002200121FEF755FC0F48CB
:102AA0000B210122FFF728FB4FF40063FB6007F1C5
:102AB0000C030A481946FFF75BFA0023FB7502E096
:102AC0000623FB7500BF02E00523FB7500BFFB7DFD
:102AD00018461837BD4680BD000002400004024081
:102AE00080B586B000AF02460B46FA71BB71022377
:102AF0003B740023BB740023FB7403237B74FB79BA
:102B0000032B00F2FF8001A252F823F01D2B0008D6
:102B1000AB2B0008392C00089F2C0008BB79012B37
:102B200017D0022B29D0002B3BD101200121FEF729
:102B30000BFC784806210222FFF7DEFA4023FB60F7
:102B400007F10C0373481946FFF712FA0023FB75CF
:102B50002AE002200121FEF7F7FB6F480421022240
:102B6000FFF7CAFA1023FB6007F10C036A48194605
:102B7000FFF7FEF90023FB7516E004200121FEF7A4
:102B8000E3FB664806210222FFF7B6FA4023FB600A
:102B900007F10C0361481946FFF7EAF90023FB75BA
:102BA00002E00623FB7500BFAFE0BB79012B17D015
:102BB000022B29D0002B3BD101200121FEF7C4FBC1
:102BC000544807210222FFF797FA8023FB6007F1A0
:102BD0000C0350481946FFF7CBF90023FB752AE098
:102BE00002200121FEF7B0FB4B4805210222FFF72E
:102BF00083FA2023FB6007F10C0347481946FFF7CF
:102C0000B7F90023FB7516E004200121FEF79CFBB9
:102C1000424807210222FFF76FFA8023FB6007F189
:102C20000C033E481946FFF7A3F90023FB7502E0A9
:102C30000623FB7500BF68E0BB79002B02D0012B97
:102C400014D028E002200121FEF77EFB324800214B
:102C50000222FFF751FA0123FB6007F10C032E4813
:102C60001946FFF785F90023FB7517E004200121C1
:102C7000FEF76AFB294808210222FFF73DFA4FF4CC
:102C80008073FB6007F10C0324481946FFF770F9C5
:102C90000023FB7502E00623FB7500BF35E0BB791E
:102CA000002B02D0012B14D028E002200121FEF7D6
:102CB0004BFB194801210222FFF71EFA0223FB6099
:102CC00007F10C0314481946FFF752F90023FB756E
:102CD00017E004200121FEF737FB104809210222EA
:102CE000FFF70AFA4FF40073FB6007F10C030B487F
:102CF0001946FFF73DF90023FB7502E00623FB753B
:102D000000BF02E00523FB7500BFFB7D18461837A6
:102D1000BD4680BD000002400004024000080240A1
:102D200080B586B000AF02460B46FA71BB71022334
:102D30003B740023BB740023FB7403237B74FB7977
:102D4000032B00F2D98001A252F823F05D2D000878
:102D5000C32D0008292E0008912E0008BB79002BF6
:102D600002D0012B14D028E002200121FEF7ECFA5A
:102D7000654806210222FFF7BFF94023FB6007F1F7
:102D80000C0361481946FFF7F3F80023FB7517E0C1
:102D900008200121FEF7D8FA5C480C210222FFF737
:102DA000ABF94FF48053FB6007F10C035748194609
:102DB000FFF7DEF80023FB7502E00623FB7500BF7A
:102DC0009DE0BB79002B02D0012B14D028E002201B
:102DD0000121FEF7B9FA4C4807210222FFF78CF9CE
:102DE0008023FB6007F10C0347481946FFF7C0F842
:102DF0000023FB7517E008200121FEF7A5FA4348E0
:102E00000D210222FFF778F94FF40053FB6007F120
:102E10000C033E481946FFF7ABF80023FB7502E0B0
:102E20000623FB7500BF6AE0BB79002B02D0012BA3
:102E300015D029E002200121FEF786FA3248082148
:102E40000222FFF759F94FF48073FB6007F10C037E
:102E50002D481946FFF78CF80023FB7517E0082072
:102E60000121FEF771FA29480E210222FFF744F9E9
:102E70004FF48043FB6007F10C0324481946FFF729
:102E800077F80023FB7502E00623FB7500BF36E0F0
:102E9000BB79002B02D0012B15D029E002200121A3
:102EA000FEF752FA184809210222FFF725F94FF4DC
:102EB0000073FB6007F10C0313481946FFF758F83D
:102EC0000023FB7517E008200121FEF73DFA0F48AB
:102ED0000F210222FFF710F94FF40043FB6007F1C6
:102EE0000C030A481946FFF743F80023FB7502E07C
:102EF0000623FB7500BF02E00523FB7500BFFB7DC9
:102F000018461837BD4680BD00040240000C024040
:102F100080B586B000AF02460B46FA71BB71022342
:102F20003B740023BB740023FB7403237B74FB7985
:102F3000032B00F2D78001A252F823F04D2F000896
:102F4000B32F0008193000087F300008BB79002B30
:102F500002D0012B14D028E001200121FEF7F4F962
:102F6000644800210222FFF7C7F80123FB6007F144
:102F70000C0360481946FEF7FBFF0023FB7517E0C2
:102F800080200121FEF7E0F95B480A210222FFF7C9
:102F9000B3F84FF48063FB6007F10C035648194601
:102FA000FEF7E6FF0023FB7502E00623FB7500BF7A
:102FB0009BE0BB79002B02D0012B14D028E001202C
:102FC0000121FEF7C1F94B4801210222FFF794F8D5
:102FD0000223FB6007F10C0346481946FEF7C8FFC1
:102FE0000023FB7517E080200121FEF7ADF9424870
:102FF0000B210222FFF780F84FF40063FB6007F11A
:103000000C033D481946FEF7B3FF0023FB7502E0B1
:103010000623FB7500BF68E0BB79002B02D0012BB3
:1030200014D028E001200121FEF78EF93148022159
:103030000222FFF761F80423FB6007F10C032D481F
:103040001946FEF795FF0023FB7517E0802001214C
:10305000FEF77AF928480C210222FFF74DF84FF4C9
:103060008053FB6007F10C0323481946FEF780FFED
:103070000023FB7502E00623FB7500BF35E0BB793A
:10308000002B02D0012B14D028E001200121FEF7F3
:103090005BF9184803210222FFF72EF80823FB6092
:1030A00007F10C0313481946FEF762FF0023FB7576
:1030B00017E04FF480700121FEF746F90F48002118
:1030C0000222FFF719F80123FB6007F10C030B48FC
:1030D0001946FEF74DFF0023FB7502E00623FB7542
:1030E00000BF02E00523FB7500BFFB7D18461837C3
:1030F000BD4680BD00000240001C0240002002408E
:1031000080B586B000AF02460B46FA71BB71022350
:103110003B740023BB740023FB7403237B74FB7993
:10312000032B00F2D98001A252F823F03D310008B0
:10313000A33100080932000871320008BB79002B66
:1031400002D0012B14D028E004200121FEF7FCF866
:10315000654806210322FEF7CFFF4023FB6007F1FD
:103160000C0361481946FEF703FF0023FB7517E0C7
:103170004FF480700121FEF7E7F85C480521032237
:10318000FEF7BAFF2023FB6007F10C0357481946EE
:10319000FEF7EEFE0023FB7502E00623FB7500BF81
:1031A0009DE0BB79002B02D0012B14D028E0042035
:1031B0000121FEF7C9F84C4807210322FEF79CFFC6
:1031C0008023FB6007F10C0347481946FEF7D0FE49
:1031D0000023FB7517E04FF480700121FEF7B4F86F
:1031E000424806210322FEF787FF4023FB6007F1D8
:1031F0000C033E481946FEF7BBFE0023FB7502E0B8
:103200000623FB7500BF6AE0BB79002B02D0012BBF
:1032100015D029E004200121FEF796F83248082154
:103220000322FEF769FF4FF48073FB6007F10C0384
:103230002D481946FEF79CFE0023FB7517E04FF45E
:1032400080700121FEF780F8284807210322FEF74D
:1032500053FF8023FB6007F10C0324481946FEF757
:1032600087FE0023FB7502E00623FB7500BF36E0F6
:10327000BB79002B02D0012B15D029E004200121BD
:10328000FEF762F8184809210322FEF735FF4FF4D4
:103290000073FB6007F10C0313481946FEF768FE44
:1032A0000023FB7517E04FF480700121FEF74CF806
:1032B0000E4802210322FEF71FFF0423FB6007F1E3
:1032C0000C030A481946FEF753FE0023FB7502E083
:1032D0000623FB7500BF02E00523FB7500BFFB7DE5
:1032E00018461837BD4680BD000802400020024045
:1032F00080B586B000AF02460B46FA71BB7102235F
:103300003B740023BB740023FB7403237B74FB79A1
:10331000002B02D0012B32D063E0BB79002B02D00E
:10332000012B14D027E001200121FEF70DF83148D0
:1033300002210322FEF7E0FE0423FB6007F10C03E9
:103340002C481946FEF714FE0023FB7516E01020EA
:103350000121FDF7F9FF284805210322FEF7CCFEE5
:103360002023FB6007F10C0323481946FEF700FEFB
:103370000023FB7502E00623FB7500BF34E0BB7938
:10338000002B02D0012B14D027E001200121FDF7F2
:10339000DBFF184803210322FEF7AEFE0823FB6083
:1033A00007F10C0313481946FEF7E2FD0023FB75F5
:1033B00016E010200121FDF7C7FF0F480621032268
:1033C000FEF79AFE4023FB6007F10C030A481946FA
:1033D000FEF7CEFD0023FB7502E00623FB7500BF60
:1033E00002E00523FB7500BFFB7D18461837BD467C
:1033F00080BD00BF000002400010024080B586B0D2
:1034000000AF02460B46FA71BB7102233B740023E6
:10341000BB740023FB7403237B74FB79002B32D134
:10342000BB79002B02D0012B15D028E0022001210E
:10343000FDF78AFF184808210322FEF75DFE4FF4CE
:103440008073FB6007F10C0313481946FEF790FDEB
:103450000023FB7516E020200121FDF775FF0F48C2
:1034600006210322FEF748FE4023FB6007F10C0310
:103470000A481946FEF77CFD0023FB7502E006238F
:10348000FB7500BF02E00523FB7500BFFB7D1846FE
:103490001837BD4680BD00BF000402400014024042
:1034A00080B586B000AF02460B46FA71BB710223AD
:1034B0003B740023BB740023FB7403237B74FB79F0
:1034C000002B32D1BB79002B02D0012B15D028E084
:1034D00002200121FDF738FF184809210322FEF7D9
:1034E0000BFE4FF40073FB6007F10C031348194601
:1034F000FEF73EFD0023FB7516E020200121FDF7BD
:1035000023FF0F4807210322FEF7F6FD8023FB600F
:1035100007F10C030A481946FEF72AFD0023FB7544
:1035200002E00623FB7500BF02E00523FB7500BF28
:10353000FB7D18461837BD4680BD00BF0004024021
:103540000014024080B586B000AF02460B46FA7107
:10355000BB7102233B740023BB740023FB74032361
:103560007B74FB79002B02D0012B33D066E0BB7952
:10357000002B02D0012B15D028E002200121FDF7FD
:10358000E3FE32480E210922FEF7B6FD4FF48043D8
:10359000FB6007F10C032D481946FEF7E9FC0023F8
:1035A000FB7516E080200121FDF7CEFE284806219C
:1035B0000922FEF7A1FD4023FB6007F10C0324481C
:1035C0001946FEF7D5FC0023FB7502E00623FB75C8
:1035D00000BF36E0BB79002B02D0012B15D029E0CB
:1035E00002200121FDF7B0FE18480F210922FEF745
:1035F00083FD4FF40043FB6007F10C0313481946A9
:10360000FEF7B6FC0023FB7517E080200121FDF7D3
:103610009BFE0F4809210922FEF76EFD4FF400734F
:10362000FB6007F10C030A481946FEF7A1FC0023D2
:10363000FB7502E00623FB7500BF02E00523FB7566
:1036400000BFFB7D18461837BD4680BD0004024010
:10365000001C024080B586B000AF02460B46FA71EE
:10366000BB7102233B740023BB740023FB74032350
:103670007B74FB79002B32D1BB79002B02D0012B5C
:1036800014D028E001200121FDF75EFE1848062134
:103690000922FEF731FD4023FB6007F10C031448BB
:1036A0001946FEF765FC0023FB7517E02020012179
:1036B000FDF74AFE0F4808210922FEF71DFD4FF4D1
:1036C0008073FB6007F10C030A481946FEF750FCB3
:1036D0000023FB7502E00623FB7500BF02E0052313
:1036E000FB7500BFFB7D18461837BD4680BD00BF87
:1036F000000002400014024080B586B000AF0246D0
:103700000B46FA71BB7102233B740023BB74002388
:10371000FB7403237B74FB79002B32D1BB79002B24
:1037200002D0012B14D028E001200121FDF70CFE6E
:10373000184807210922FEF7DFFC8023FB6007F110
:103740000C0314481946FEF713FC0023FB7517E021
:1037500020200121FDF7F8FD0F4809210922FEF77D
:10376000CBFC4FF40073FB6007F10C030A481946C9
:10377000FEF7FEFB0023FB7502E00623FB7500BF8E
:1037800002E00523FB7500BFFB7D18461837BD46D8
:1037900080BD00BF00000240001402402DE9F0414E
:1037A00084B000AF6C46A0464E4C002525604E4CC0
:1037B000002525606424FC60FE68741EBC603446ED
:1037C0004FF00005690141EAD461600131460846C5
:1037D0004FF000014B0143EAD063420133469B00A6
:1037E00003330733DB08DB00ADEB030D6B4603331C
:1037F0009B089B007B603D483D49FCF7F5FC4FF47E
:103800009670FEF7F7FA3B4B2D221A6055E0354BC8
:1038100000221A60384B00221A601CE0364B1C68EC
:1038200036480C21FCF798FF03461A467B6843F89C
:103830002420314B1A687B6853F82220294B1B68DF
:103840001A44284B1A606420FEF7C0FA2A4B1B6802
:103850005A1C294B1A60284B1A68FB689A42DDDB18
:10386000204B1A68FB6892FBF3F3254A82FB031294
:103870005211DB17D21A1C4B1A601B4B1B681846DF
:103880002049FEF71BFB20481E49FDF759FF1E4843
:103890001E49FDF755FF174B1B68184601F014FB36
:1038A000034612481946FCF79FFC0420FEF7A2FAD3
:1038B000104B1B685A1C0F4B1A600E4B1B68862B53
:1038C000A5DD6420FEF796FA0F481149FDF738FF91
:1038D00006481049FCF788FCC5461037BD46BDE8D0
:1038E000F08100BF8800002090000020E40100204B
:1038F00000003442A0000020980000200020014079
:103900001F85EB51AC000020004400405C540008CF
:10391000605400080000B44280B500AFFEF732FCEE
:10392000FEF7A4FA0E4800214FF4E132FDF7A0FDA6
:103930000C480C21FCF73EFE0B484FF08041012261
:103940000023FCF721FC09484FF0804101220123AC
:10395000FCF71AFC04480649FCF746FC80BD00BF92
:103960000044004000200140E4010020FC01002050
:103970000000B4422DE9F04184B000AF6C46A0468F
:10398000354C00252560354C00252560C824BC60D9
:10399000BE68741E7C6034464FF00005690141EA40
:1039A000D4616001314608464FF000014B0143EA03
:1039B000D063420133469B0003330733DB08DB004F
:1039C000ADEB030D6B4603339B089B003B6000236C
:1039D000FB60234B00221A601CE0214B1C6821482D
:1039E0000C21FCF7B9FE03461A463B6843F8242035
:1039F0001B4B1A683B6853F82220174B1B681A446C
:103A0000154B1A600520FEF7E1F9154B1B685A1C8F
:103A1000134B1A60124B1A68BB689A42DDDB0E4BDF
:103A20001A68BB6892FBF3F30F4A82FB0312521130
:103A3000DB17D21A094B1A60084B1B68142B02DDE6
:103A40000123FB6001E00023FB60FB68C5461846CC
:103A50001037BD46BDE8F0818C00002094000020A6
:103A60009C000020002001401F85EB5180B485B0F0
:103A700000AF78600023FB730023BB730F237B73BD
:103A80007B68DB78002B37D0254BDB68DB4303F406
:103A9000E0631B0AFB73FB7BC3F10403BB737A7BFC
:103AA000FB7B42FA03F37B737B685B781A46BB7B34
:103AB00002FA03F3FB737B689A787B7B1340DAB2DC
:103AC000FB7B1343FB73FB7B1B01FB73154A7B687A
:103AD0001B781344FA7B83F80023124B7A68127820
:103AE0005209D2B27968097801F01F01012000FA69
:103AF00001F143F822100EE00A4B7A68127852095D
:103B0000D2B27968097801F01F01012000FA01F1B1
:103B1000203243F822101437BD465DF8047B70470D
:103B200000ED00E000E100E080B586B000AF786015
:103B3000396007F108031846FDF75CFB3B684FF658
:103B4000FF729A607B68B3F1804F03D07A68294B8B
:103B50009A4208D17A693B681A603B684FF0FF329D
:103B60005A60002342E07A68234B9A420FD07A6869
:103B7000224B9A420BD07A68214B9A4207D07A683E
:103B8000204B9A4203D07A681F4B9A4208D1FA68B8
:103B90003B681A603B684FF6FF725A60002325E0CD
:103BA0007A681A4B9A4217D07A68194B9A4213D006
:103BB0007A68184B9A420FD07A68174B9A420BD00A
:103BC0007A68164B9A4207D07A68154B9A4203D00E
:103BD0007A68144B9A4208D17A693B681A603B684C
:103BE0004FF6FF725A60002300E002231846183790
:103BF000BD4680BD000C00400000014000040140B3
:103C000000400140004401400048014000040040E1
:103C10000008004000100040001400400018004060
:103C2000001C00400020004080B584B000AFF86068
:103C3000C7E90023FB681B68184600F05BFD0246DD
:103C40000B4610461946D7E9002301F03BF803461E
:103C5000002B0AD0FB6800221A61FB680022DA60A0
:103C6000FB6800225A6103236DE0D7E900014FF0A1
:103C700000024FF0000301F01BF80346002B0AD0AE
:103C8000FB6800221A61FB680022DA60FB680022F0
:103C90005A61042357E0FB685B68B3F5803F04D2A8
:103CA000FB685B685A1CFB685A60FB6800221A615B
:103CB000FB681A68FB681B690133B2FBF3F2FB680F
:103CC000DA60FB68DB68184600F014FD02460B461C
:103CD00010461946D7E9002300F0ACFE02460B4619
:103CE0001046194601F016F80246FB68DA60FB68D8
:103CF0001B695A1CFB681A61FB68DA68FB685B6821
:103D00009A4206D9FB681A69FB689B6801339A429C
:103D1000CED9FB681A69FB689B6801339A420AD9BD
:103D2000FB6800221A61FB680022DA60FB6800224F
:103D30005A61042307E0D7E9000100F0EBFF0246D7
:103D4000FB685A61002318461037BD4680BD00BF8E
:103D500080B582B000AF78607A68424B9A4204D155
:103D600001200121FDF72CFB77E07B68B3F1804F48
:103D700004D101200121FDF705FB6EE07A683A4B82
:103D80009A4204D102200121FDF7FCFA65E07A682D
:103D9000364B9A4204D104200121FDF7F3FA5CE08E
:103DA0007A68334B9A4204D108200121FDF7EAFAE0
:103DB00053E07A682F4B9A4204D110200121FDF77D
:103DC000E1FA4AE07A682C4B9A4204D12020012182
:103DD000FDF7D8FA41E07A68284B9A4204D10220D4
:103DE0000121FDF7EDFA38E07A68254B9A4205D1BA
:103DF0004FF480300121FDF7E3FA2EE07A68214B81
:103E00009A4205D14FF400300121FDF7D9FA24E0A0
:103E10007A681D4B9A4205D14FF480200121FDF7AD
:103E2000CFFA1AE07A68194B9A4204D14020012156
:103E3000FDF7A8FA11E07A68154B9A4204D1802068
:103E40000121FDF79FFA08E07A68124B9A4204D1EB
:103E50004FF480700121FDF795FA002318460837CA
:103E6000BD4680BD00000140000400400008004045
:103E7000000C00400010004000140040000401400D
:103E8000004001400044014000480140001800404B
:103E9000001C00400020004080B485B000AF786076
:103EA00039600023FB817B681B88FB817A68284B83
:103EB0009A4213D07A68274B9A420FD07B68B3F1AD
:103EC000804F0BD07A68244B9A4207D07A68234BF4
:103ED0009A4203D07A68224B9A4208D1FB8923F098
:103EE0007003FB813B685A88FB891343FB817A6826
:103EF0001C4B9A420CD07A681B4B9A4208D0FB8923
:103F000023F44073FB813B681A89FB891343FB81CF
:103F10007B68FA891A803B685A687B68DA623B687A
:103F20001A887B681A857A68094B9A4203D07A68A6
:103F3000084B9A4204D13B689B7A1A467B681A86E2
:103F40007B6801229A821437BD465DF8047B704776
:103F5000000001400004014000040040000800404F
:103F6000000C0040001000400014004080B483B0FA
:103F700000AF78600B46FB70FB78002B08D07B68A5
:103F80001B889BB243F001039AB27B681A8007E05A
:103F90007B681B889BB223F001039AB27B681A806E
:103FA0000C37BD465DF8047B704700BF80B485B018
:103FB00000AF7860396000237B810023FB81002300
:103FC000BB817B681B8C9BB223F001039AB27B6898
:103FD0001A847B681B8CFB817B689B88BB817B6818
:103FE0001B8B7B817B8923F070037B817B8923F092
:103FF00003037B813B681A887B8913437B81FB89A0
:1040000023F00203FB813B689A89FB891343FB8100
:104010003B685A88FB891343FB817A681E4B9A429E
:1040200003D07A681D4B9A4223D1FB8923F0080301
:10403000FB813B68DA89FB891343FB81FB8923F011
:104040000403FB813B689A88FB891343FB81BB898E
:1040500023F48073BB81BB8923F40073BB813B686D
:104060001A8ABB891343BB813B685A8ABB891343B5
:10407000BB817B68BA899A807B687A891A833B689E
:104080009A687B685A637B68FA891A841437BD463C
:104090005DF8047B704700BF000001400004014050
:1040A00080B485B000AF7860396000237B81002345
:1040B000FB810023BB817B681B8C9BB223F0100328
:1040C0009AB27B681A847B681B8CFB817B689B8817
:1040D000BB817B681B8B7B817B8923F4E0437B81E5
:1040E0007B8923F440737B813B681B881B029AB257
:1040F0007B8913437B81FB8923F02003FB813B6891
:104100009B891B019AB2FB891343FB813B685B8847
:104110001B019AB2FB891343FB817A68224B9A42B6
:1041200003D07A68214B9A422BD1FB8923F080037C
:10413000FB813B68DB891B019AB2FB891343FB813E
:10414000FB8923F04003FB813B689B881B019AB2EB
:10415000FB891343FB81BB8923F48063BB81BB894B
:1041600023F40063BB813B681B8A9B009AB2BB8926
:104170001343BB813B685B8A9B009AB2BB891343A4
:10418000BB817B68BA899A807B687A891A833B688D
:104190009A687B689A637B68FA891A841437BD46EB
:1041A0005DF8047B704700BF00000140000401403F
:1041B00080B485B000AF7860396000237B81002334
:1041C000FB810023BB817B681B8C9BB223F4807333
:1041D0009AB27B681A847B681B8CFB817B689B8806
:1041E000BB817B689B8B7B817B8923F070037B8108
:1041F0007B8923F003037B813B681A887B89134307
:104200007B81FB8923F40073FB813B689B891B0244
:104210009AB2FB891343FB813B685B881B029AB20D
:10422000FB891343FB817A68224B9A4203D07A6858
:10423000214B9A422BD1FB8923F40063FB813B681D
:10424000DB891B029AB2FB891343FB81FB8923F4B0
:104250008063FB813B689B881B029AB2FB891343F6
:10426000FB81BB8923F48053BB81BB8923F40053BA
:10427000BB813B681B8A1B019AB2BB891343BB817C
:104280003B685B8A1B019AB2BB891343BB817B6885
:10429000BA899A807B687A899A833B689A687B6836
:1042A000DA637B68FA891A841437BD465DF8047BAB
:1042B000704700BF000001400004014080B485B099
:1042C00000AF786039600023BB8100237B8100232D
:1042D000FB817B681B8C9BB223F480539AB27B6872
:1042E0001A847B681B8C7B817B689B88FB817B6845
:1042F0009B8BBB81BB8923F4E043BB81BB8923F447
:104300004073BB813B681B881B029AB2BB89134375
:10431000BB817B8923F400537B813B689B891B0312
:104320009AB27B8913437B813B685B881B039AB2FB
:104330007B8913437B817A68114B9A4203D07A6858
:10434000104B9A420AD1FB8923F48043FB813B68DE
:104350001B8A9B019AB2FB891343FB817B68FA8914
:104360009A807B68BA899A833B689A687B681A64EA
:104370007B687A891A841437BD465DF8047B7047E0
:10438000000001400004014080B485B000AF7860B7
:104390000B467B800023FB817B681B8BFB81FB89A9
:1043A00023F00803FB81FA897B881343FB817B6838
:1043B000FA891A831437BD465DF8047B704700BF45
:1043C00080B485B000AF78600B467B800023FB8112
:1043D0007B681B8BFB81FB8923F40063FB817B885B
:1043E0001B029AB2FB891343FB817B68FA891A830B
:1043F0001437BD465DF8047B704700BF80B485B0BC
:1044000000AF78600B467B800023FB817B689B8B31
:10441000FB81FB8923F00803FB81FA897B88134326
:10442000FB817B68FA899A831437BD465DF8047B6B
:10443000704700BF80B485B000AF78600B467B80CA
:104440000023FB817B689B8BFB81FB8923F400634A
:10445000FB817B881B029AB2FB891343FB817B683B
:10446000FA899A831437BD465DF8047B704700BF14
:1044700081F0004102E000BF83F0004330B54FEA15
:1044800041044FEA430594EA050F08BF90EA020F82
:104490001FBF54EA000C55EA020C7FEA645C7FEA15
:1044A000655C00F0E2804FEA5454D4EB5555B8BF38
:1044B0006D420CDD2C4480EA020281EA030382EAA9
:1044C000000083EA010180EA020281EA0303362D3B
:1044D00088BF30BD11F0004F4FEA01314FF4801C0E
:1044E0004CEA113102D0404261EB410113F0004F20
:1044F0004FEA03334CEA133302D0524263EB4303D7
:1045000094EA050F00F0A780A4F10104D5F1200E74
:104510000DDB02FA0EFC22FA05F2801841F10001CF
:1045200003FA0EF2801843FA05F359410EE0A5F1A3
:1045300020050EF1200E012A03FA0EFC28BF4CF0D4
:10454000020C43FA05F3C01851EBE37101F000458A
:1045500007D54FF0000EDCF1000C7EEB00006EEB97
:104560000101B1F5801F1BD3B1F5001F0CD3490821
:104570005FEA30004FEA3C0C04F101044FEA445278
:1045800012F5800F80F09A80BCF1004F08BF5FEAFF
:10459000500C50F1000041EB045141EA050130BDDF
:1045A0005FEA4C0C404141EB010111F4801FA4F182
:1045B0000104E9D191F0000F04BF01460020B1FAD7
:1045C00081F308BF2033A3F10B03B3F120020CDA0F
:1045D0000C3208DD02F1140CC2F10C0201FA0CF0ED
:1045E00021FA02F10CE002F11402D8BFC2F1200C52
:1045F00001FA02F120FA0CFCDCBF41EA0C01904008
:10460000E41AA2BF01EB0451294330BD6FEA040450
:104610001F3C1CDA0C340EDC04F11404C4F120023B
:1046200020FA04F001FA02F340EA030021FA04F34D
:1046300045EA030130BDC4F10C04C4F1200220FAA4
:1046400002F001FA04F340EA0300294630BD21FAE2
:1046500004F0294630BD94F0000F83F4801306BFA8
:1046600081F480110134013D4EE77FEA645C18BF9C
:104670007FEA655C29D094EA050F08BF90EA020F33
:1046800005D054EA000C04BF1946104630BD91EA2B
:10469000030F1EBF0021002030BD5FEA545C05D12E
:1046A0004000494128BF41F0004130BD14F580046D
:1046B0003CBF01F5801130BD01F0004545F0FE41E1
:1046C00041F470014FF0000030BD7FEA645C1ABF16
:1046D000194610467FEA655C1CBF0B46024650EA4D
:1046E000013406BF52EA033591EA030F41F4002179
:1046F00030BD00BF90F0000F04BF0021704730B5FF
:104700004FF4806404F132044FF000054FF00001D3
:1047100050E700BF90F0000F04BF0021704730B594
:104720004FF4806404F1320410F0004548BF404269
:104730004FF000013EE700BF42004FEAE2014FEABE
:1047400031014FEA02701FBF12F07F4393F07F4F99
:1047500081F06051704792F0000F14BF93F07F4FCB
:10476000704730B54FF4607401F0004521F000410E
:1047700020E700BF50EA010208BF704730B54FF094
:1047800000050AE050EA010208BF704730B511F099
:10479000004502D5404261EB41014FF4806404F1D1
:1047A00032045FEA915C3FF4DCAE4FF003025FEA53
:1047B000DC0C18BF03325FEADC0C18BF033202EBDB
:1047C000DC02C2F1200300FA03FC20FA02F001FA35
:1047D00003FE40EA0E0021FA02F11444C1E600BFD4
:1047E00070B54FF0FF0C4CF4E06C1CEA11541DBF87
:1047F0001CEA135594EA0C0F95EA0C0F00F0DEF852
:104800002C4481EA030621EA4C5123EA4C5350EA36
:10481000013518BF52EA033541F4801143F4801387
:1048200038D0A0FB02CE4FF00005E1FB02E506F018
:104830000042E0FB03E54FF00006E1FB03569CF06D
:10484000000F18BF4EF0010EA4F1FF04B6F5007F73
:1048500064F5407404D25FEA4E0E6D4146EB0606E5
:1048600042EAC62141EA55514FEAC52040EA5E506E
:104870004FEACE2EB4F1FD0C88BFBCF5E06F1ED818
:10488000BEF1004F08BF5FEA500E50F1000041EB4F
:10489000045170BD06F0004646EA010140EA0200FC
:1048A00081EA0301B4EB5C04C2BFD4EB0C0541EA1E
:1048B000045170BD41F480114FF0000E013C00F333
:1048C000AB8014F1360FDEBF002001F0004170BD57
:1048D000C4F10004203C35DA0C341BDC04F1140470
:1048E000C4F1200500FA05F320FA04F001FA05F2FC
:1048F00040EA020001F0004221F0004110EBD370C9
:1049000021FA04F642EB06015EEA430E08BF20EAF4
:10491000D37070BDC4F10C04C4F1200500FA04F397
:1049200020FA05F001FA04F240EA020001F0004129
:1049300010EBD37041F100015EEA430E08BF20EA9C
:10494000D37070BDC4F1200500FA05F24EEA020EE4
:1049500020FA04F301FA05F243EA020321FA04F013
:1049600001F0004121FA04F220EA020000EBD370CA
:104970005EEA430E08BF20EAD37070BD94F0000FCA
:104980000FD101F00046400041EB010111F4801FFE
:1049900008BF013CF7D041EA060195F0000F18BFAF
:1049A000704703F00046520043EB030313F4801FEB
:1049B00008BF013DF7D043EA0603704794EA0C0FA5
:1049C0000CEA135518BF95EA0C0F0CD050EA4106BB
:1049D00018BF52EA4306D1D181EA030101F0004138
:1049E0004FF0000070BD50EA410606BF1046194660
:1049F00052EA430619D094EA0C0F02D150EA01366C
:104A000013D195EA0C0F05D152EA03361CBF1046AC
:104A100019460AD181EA030101F0004141F0FE414B
:104A200041F470014FF0000070BD41F0FE4141F4CF
:104A3000780170BD70B54FF0FF0C4CF4E06C1CEACF
:104A400011541DBF1CEA135594EA0C0F95EA0C0F84
:104A500000F0A7F8A4EB050481EA030E52EA03353F
:104A60004FEA013100F088804FEA03334FF0805560
:104A700045EA131343EA12634FEA022245EA11158D
:104A800045EA10654FEA00260EF000419D4208BF3E
:104A9000964244F1FD0404F5407402D25B084FEAEB
:104AA0003202B61A65EB03055B084FEA32024FF497
:104AB00080104FF4002CB6EB020E75EB030E22BFF4
:104AC000B61A754640EA0C005B084FEA3202B6EBB4
:104AD000020E75EB030E22BFB61A754640EA5C0063
:104AE0005B084FEA3202B6EB020E75EB030E22BFF3
:104AF000B61A754640EA9C005B084FEA3202B6EBF4
:104B0000020E75EB030E22BFB61A754640EADC00B2
:104B100055EA060E18D04FEA051545EA16754FEA14
:104B200006164FEAC30343EA52734FEAC2025FEA32
:104B30001C1CC0D111F4801F0BD141EA00014FF0C1
:104B400000004FF0004CB6E711F4801F04BF014392
:104B50000020B4F1FD0C88BFBCF5E06F3FF6AFAEAE
:104B6000B5EB030C04BFB6EB020C5FEA500C50F13E
:104B7000000041EB045170BD0EF0004E4EEA1131C1
:104B800014EB5C04C2BFD4EB0C0541EA045170BDC8
:104B900041F480114FF0000E013C90E645EA060E0C
:104BA0008DE60CEA135594EA0C0F08BF95EA0C0F3A
:104BB0003FF43BAF94EA0C0F0AD150EA01347FF482
:104BC00034AF95EA0C0F7FF425AF104619462CE759
:104BD00095EA0C0F06D152EA03353FF4FDAE1046BC
:104BE000194622E750EA410618BF52EA43067FF40D
:104BF000C5AE50EA41047FF40DAF52EA43057FF49D
:104C0000EBAE12E74FF0FF3C06E000BF4FF0010CA7
:104C100002E000BF4FF0010C4DF804CD4FEA410C0B
:104C20007FEA6C5C4FEA430C18BF7FEA6C5C1BD0D8
:104C300001B050EA410C0CBF52EA430C91EA030F59
:104C400002BF90EA020F0020704710F1000F91EAB6
:104C5000030F58BF994208BF90422CBFD8176FEA84
:104C6000E37040F0010070474FEA410C7FEA6C5C52
:104C700002D150EA013C07D14FEA430C7FEA6C5C59
:104C8000D6D152EA033CD3D05DF8040B704700BF85
:104C90008446104662468C461946634600E000BFD3
:104CA00001B5FFF7B7FF002848BF10F1000F01BDA5
:104CB0004DF808EDFFF7F4FF0CBF012000205DF870
:104CC00008FB00BF4DF808EDFFF7EAFF34BF0120F5
:104CD00000205DF808FB00BF4DF808EDFFF7E0FF8E
:104CE00094BF012000205DF808FB00BF4DF808EDDF
:104CF000FFF7CEFF94BF012000205DF808FB00BF46
:104D00004DF808EDFFF7C4FF34BF012000205DF827
:104D100008FB00BF4A0011D212F5001211D20DD5C6
:104D20006FF47873B3EB62520ED44FEAC12343F0B1
:104D3000004343EA505323FA02F070474FF000005B
:104D4000704750EA013002D14FF0FF3070474FF00A
:104D50000000704780F0004002E000BF81F0004199
:104D600042001FBF5FEA410392EA030F7FEA226C11
:104D70007FEA236C6AD04FEA1262D2EB1363C1BFA1
:104D8000D218414048404140B8BF5B42192B88BF10
:104D9000704710F0004F40F4000020F07F4018BF33
:104DA000404211F0004F41F4000121F07F4118BF53
:104DB000494292EA030F3FD0A2F1010241FA03FCFB
:104DC00010EB0C00C3F1200301FA03F100F00043E3
:104DD00002D5494260EB4000B0F5000F13D3B0F1AB
:104DE000807F06D340084FEA310102F10102FE2A1A
:104DF00051D2B1F1004F40EBC25008BF20F001008A
:104E000040EA03007047490040EB000010F4000F37
:104E1000A2F10102EDD1B0FA80FCACF1080CB2EBCA
:104E20000C0200FA0CF0AABF00EBC2505242184329
:104E3000BCBFD0401843704792F0000F81F40001CE
:104E400006BF80F400000132013BB5E74FEA4103A1
:104E50007FEA226C18BF7FEA236C21D092EA030F0D
:104E600004D092F0000F08BF0846704790EA010F87
:104E70001CBF0020704712F07F4F04D1400028BFB4
:104E800040F00040704712F100723CBF00F5000096
:104E9000704700F0004343F0FE4040F400007047CC
:104EA0007FEA226216BF08467FEA23630146420278
:104EB00006BF5FEA412390EA010F40F4800070478B
:104EC0004FF0000304E000BF10F0004348BF404231
:104ED0005FEA000C08BF704743F0964301464FF06D
:104EE00000001CE050EA010208BF70474FF00003C9
:104EF0000AE000BF50EA010208BF704711F000430A
:104F000002D5404261EB41015FEA010C02BF8446D9
:104F10000146002043F0B64308BFA3F18053A3F538
:104F20000003BCFA8CF2083AA3EBC25310DB01FA7F
:104F300002FC634400FA02FCC2F12002BCF1004F03
:104F400020FA02F243EB020008BF20F00100704794
:104F500002F1200201FA02FCC2F1200250EA4C00E8
:104F600021FA02F243EB020008BF20EADC7070472E
:104F70004FF0FF0C1CEAD0521EBF1CEAD15392EA3C
:104F80000C0F93EA0C0F6FD01A4480EA010C400218
:104F900018BF5FEA41211ED04FF0006343EA501072
:104FA00043EA5111A0FB01310CF00040B1F5000FB4
:104FB0003EBF490041EAD3715B0040EA010062F163
:104FC0007F02FD2A1DD8B3F1004F40EBC25008BF4D
:104FD00020F00100704790F0000F0CF0004C08BF6B
:104FE00049024CEA502040EA51207F3AC2BFD2F138
:104FF000FF0340EAC250704740F400004FF0000346
:10500000013A5DDC12F1190FDCBF00F0004070477F
:10501000C2F10002410021FA02F1C2F1200200FABD
:1050200002FC5FEA310040F1000053EA4C0308BF84
:1050300020EADC70704792F0000F00F0004C02BFD5
:10504000400010F4000F013AF9D040EA0C0093F050
:10505000000F01F0004C02BF490011F4000F013BAA
:10506000F9D041EA0C018FE70CEAD15392EA0C0F18
:1050700018BF93EA0C0F0AD030F0004C18BF31F083
:10508000004CD8D180EA010000F00040704790F059
:10509000000F17BF90F0004F084691F0000F91F0FD
:1050A000004F14D092EA0C0F01D142020FD193EAC3
:1050B0000C0F03D14B0218BF084608D180EA01004B
:1050C00000F0004040F0FE4040F40000704740F027
:1050D000FE4040F4400070474FF0FF0C1CEAD052F5
:1050E0001EBF1CEAD15392EA0C0F93EA0C0F69D051
:1050F000A2EB030280EA010C49024FEA402037D0BC
:105100004FF0805343EA111143EA10130CF00040B2
:105110008B4238BF5B0042F17D024FF4000C8B42A2
:1051200024BF5B1A40EA0C00B3EB510F24BFA3EB82
:10513000510340EA5C00B3EB910F24BFA3EB910352
:1051400040EA9C00B3EBD10F24BFA3EBD10340EAAC
:10515000DC001B0118BF5FEA1C1CE0D1FD2A3FF6F2
:1051600050AF8B4240EBC25008BF20F001007047A7
:105170000CF0004C4CEA50207F32C2BFD2F1FF034A
:1051800040EAC250704740F400004FF00003013A7B
:1051900037E792F0000F00F0004C02BF400010F41F
:1051A000000F013AF9D040EA0C0093F0000F01F033
:1051B000004C02BF490011F4000F013BF9D041EA55
:1051C0000C0195E70CEAD15392EA0C0F08D1420288
:1051D0007FF47DAF93EA0C0F7FF470AF084676E75B
:1051E00093EA0C0F04D14B023FF44CAF08466EE734
:1051F00030F0004C18BF31F0004CCAD130F0004202
:105200007FF45CAF31F000437FF43CAF5FE700BF59
:105210004FF0FF3C06E000BF4FF0010C02E000BF82
:105220004FF0010C4DF804CD4FEA40024FEA410324
:105230007FEA226C18BF7FEA236C11D001B052EADA
:10524000530C18BF90EA010F58BFB2EB030088BFA0
:10525000C81738BF6FEAE17018BF40F0010070470F
:105260007FEA226C02D15FEA402C05D17FEA236CF1
:10527000E4D15FEA412CE1D05DF8040B704700BF38
:10528000844608466146FFE70FB5FFF7C9FF0028CF
:1052900048BF10F1000F0FBD4DF808EDFFF7F4FF08
:1052A0000CBF012000205DF808FB00BF4DF808EDA1
:1052B000FFF7EAFF34BF012000205DF808FB00BFC4
:1052C0004DF808EDFFF7E0FF94BF012000205DF8E6
:1052D00008FB00BF4DF808EDFFF7D2FF94BF012097
:1052E00000205DF808FB00BF4DF808EDFFF7C8FF90
:1052F00034BF012000205DF808FB00BF42000ED241
:10530000B2F1FE4F0BD34FF09E03B3EB126209D400
:105310004FEA002343F0004323FA02F070474FF0B6
:105320000000704712F1610F01D1420202D14FF02B
:10533000FF3070474FF00000704700BF5365742086
:1053400075702074616E6B20737065656421200A2E
:105350000D202B20696E637265617365202D2064BA
:105360006563726561736520737065656420627939
:10537000203525200A0D207220746F20656E642070
:105380007365747570200A0D000000002020200D48
:1053900000000000736574757020656E646564209C
:1053A0000D00000063686F7365206D6F7665200ADD
:1053B0000D206620666F7277617264200A0D20628C
:1053C000206261636B77617264200A0D2072207421
:1053D00075726E207269676874200A0D206C2074E3
:1053E00075726E206C656674200A0D2073207374CC
:1053F0006F70200A0D000000676F696E6720666F8E
:105400007277617264200D00676F696E6720626158
:10541000636B77617264200D000000007475726E1A
:10542000696E67207269676874200D007475726E0A
:10543000696E67206C656674200D000073746F7070
:1054400020202020202020202020202020200D008F
:105450003031323334353637383900000A0D000028
:10546000656E64206F66207363616E0A0D00000034
:105470002D000000000000000102030401020304EB
:1054800006070809007A030A000000000000000077
:085490000102030406070809EC
:0400000508000000EF
:00000001FF
